:020000040800F2
:1000000000800120FD1600082B0C0008390C0008A8
:100010003F0C0008450C00084B0C000800000000D5
:10002000000000000000000000000000510C00086B
:100030005F0C0008000000006D0C00087B0C00083D
:100040004517000845170008451700084517000820
:100050004517000845170008451700084517000810
:100060004517000845170008451700084517000800
:1000700045170008451700084517000845170008F0
:1000800045170008451700084517000845170008E0
:1000900045170008451700084517000845170008D0
:1000A00045170008890C0008451700084517000887
:1000B00045170008451700084517000845170008B0
:1000C00045170008451700084517000845170008A0
:1000D0004517000845170008451700084517000890
:1000E0004517000845170008451700084517000880
:1000F0004517000845170008451700084517000870
:10010000451700084517000845170008451700085F
:10011000451700084517000845170008451700084F
:10012000451700084517000845170008451700083F
:10013000451700084517000845170008451700082F
:1001400000000000000000000000000000000000AF
:10015000451700084517000845170008451700080F
:1001600045170008451700084517000845170008FF
:1001700045170008451700084517000845170008EF
:040180004517000817
:1001900010B5054C237833B9044B13B10448AFF3C1
:1001A00000800123237010BD7402002000000000B5
:1001B0005857000808B5034B1BB103490348AFF378
:1001C000008008BD00000000780200205857000899
:1001D00081F0004102E000BF83F0004330B54FEAF8
:1001E00041044FEA430594EA050F08BF90EA020F65
:1001F0001FBF54EA000C55EA020C7FEA645C7FEAF8
:10020000655C00F0E2804FEA5454D4EB5555B8BF1A
:100210006D420CDD2C4480EA020281EA030382EA8B
:10022000000083EA010180EA020281EA0303362D1D
:1002300088BF30BD11F0004F4FEA01314FF4801CF0
:100240004CEA113102D0404261EB410113F0004F02
:100250004FEA03334CEA133302D0524263EB4303B9
:1002600094EA050F00F0A780A4F10104D5F1200E57
:100270000DDB02FA0EFC22FA05F2801841F10001B2
:1002800003FA0EF2801843FA05F359410EE0A5F186
:1002900020050EF1200E012A03FA0EFC28BF4CF0B7
:1002A000020C43FA05F3C01851EBE37101F000456D
:1002B00007D54FF0000EDCF1000C7EEB00006EEB7A
:1002C0000101B1F5801F1BD3B1F5001F0CD3490804
:1002D0005FEA30004FEA3C0C04F101044FEA44525B
:1002E00012F5800F80F09A80BCF1004F08BF5FEAE2
:1002F000500C50F1000041EB045141EA050130BDC2
:100300005FEA4C0C404141EB0101013C28BFB1F5D3
:10031000801FE9D291F0000F04BF01460020B1FA1E
:1003200081F308BF2033A3F10B03B3F120020CDAF1
:100330000C3208DD02F1140CC2F10C0201FA0CF0CF
:1003400021FA02F10CE002F11402D8BFC2F1200C34
:1003500001FA02F120FA0CFCDCBF41EA0C019040EA
:10036000E41AA2BF01EB0451294330BD6FEA040433
:100370001F3C1CDA0C340EDC04F11404C4F120021E
:1003800020FA04F001FA02F340EA030021FA04F330
:1003900045EA030130BDC4F10C04C4F1200220FA87
:1003A00002F001FA04F340EA0300294630BD21FAC5
:1003B00004F0294630BD94F0000F83F4801306BF8B
:1003C00081F480110134013D4EE77FEA645C18BF7F
:1003D0007FEA655C29D094EA050F08BF90EA020F16
:1003E00005D054EA000C04BF1946104630BD91EA0E
:1003F000030F1EBF0021002030BD5FEA545C05D111
:100400004000494128BF41F0004130BD14F580044F
:100410003CBF01F5801130BD01F0004545F0FE41C3
:1004200041F470014FF0000030BD7FEA645C1ABFF8
:10043000194610467FEA655C1CBF0B46024650EA2F
:10044000013406BF52EA033591EA030F41F400215B
:1004500030BD00BF90F0000F04BF0021704730B5E1
:100460004FF4806404F132044FF000054FF00001B6
:1004700050E700BF90F0000F04BF0021704730B577
:100480004FF4806404F1320410F0004548BF40424C
:100490004FF000013EE700BF42004FEAE2014FEAA1
:1004A00031014FEA02701FBF12F07F4393F07F4F7C
:1004B00081F06051704732F07F4208BF704793F07F
:1004C0007F4F04BF41F40021704730B54FF4607492
:1004D00001F0004521F000411CE700BF50EA010295
:1004E00008BF704730B54FF000050AE050EA01023E
:1004F00008BF704730B511F0004502D5404261EBAE
:1005000041014FF4806404F132045FEA915C3FF4EE
:10051000D8AE4FF003025FEADC0C18BF03325FEA8B
:10052000DC0C18BF033202EBDC02C2F1200300FA3C
:1005300003FC20FA02F001FA03FE40EA0E0021FA61
:1005400002F11444BDE600BF034613F8012B002A54
:10055000FBD1181A013870470000000000000000AD
:1005600001F0FF01102A2BDB10F0070F08D010F864
:10057000013B013A8B422DD010F0070F42B3F6D168
:10058000F0B441EA012141EA014122F007047FF081
:1005900000070023F0E80256083C85EA010586EAD8
:1005A000010685FA47F5A3FA87F586FA47F6A5FA14
:1005B00087F68EB9EED1F0BC01F0FF0102F0070220
:1005C00032B110F8013B013A83EA010313B1F8D1CB
:1005D0000020704701387047002D06BF35460338AC
:1005E000073815F0010F07D1013015F4807F02BFE5
:1005F000013015F4C03F0130F0BC0138704700BF36
:1006000070B54FF0FF0C4CF4E06C1CEA11541DBFA8
:100610001CEA135594EA0C0F95EA0C0F00F0DEF873
:100620002C4481EA030621EA4C5123EA4C5350EA58
:10063000013518BF52EA033541F4801143F48013A9
:1006400038D0A0FB02CE4FF00005E1FB02E506F03A
:100650000042E0FB03E54FF00006E1FB03569CF08F
:10066000000F18BF4EF0010EA4F1FF04B6F5007F95
:1006700064F5407404D25FEA4E0E6D4146EB060607
:1006800042EAC62141EA55514FEAC52040EA5E5090
:100690004FEACE2EB4F1FD0C88BFBCF5E06F1ED83A
:1006A000BEF1004F08BF5FEA500E50F1000041EB71
:1006B000045170BD06F0004646EA010140EA02001E
:1006C00081EA0301B4EB5C04C2BFD4EB0C0541EA40
:1006D000045170BD41F480114FF0000E013C00F355
:1006E000AB8014F1360FDEBF002001F0004170BD79
:1006F000C4F10004203C35DA0C341BDC04F1140492
:10070000C4F1200500FA05F320FA04F001FA05F21D
:1007100040EA020001F0004221F0004110EBD370EA
:1007200021FA04F642EB06015EEA430E08BF20EA16
:10073000D37070BDC4F10C04C4F1200500FA04F3B9
:1007400020FA05F001FA04F240EA020001F000414B
:1007500010EBD37041F100015EEA430E08BF20EABE
:10076000D37070BDC4F1200500FA05F24EEA020E06
:1007700020FA04F301FA05F243EA020321FA04F035
:1007800001F0004121FA04F220EA020000EBD370EC
:100790005EEA430E08BF20EAD37070BD94F0000FEC
:1007A0000FD101F00046400041EB010111F4801F20
:1007B00008BF013CF7D041EA060195F0000F18BFD1
:1007C000704703F00046520043EB030313F4801F0D
:1007D00008BF013DF7D043EA0603704794EA0C0FC7
:1007E0000CEA135518BF95EA0C0F0CD050EA4106DD
:1007F00018BF52EA4306D1D181EA030101F000415A
:100800004FF0000070BD50EA410606BF1046194681
:1008100052EA430619D094EA0C0F02D150EA01368D
:1008200013D195EA0C0F05D152EA03361CBF1046CE
:1008300019460AD181EA030101F0004141F0FE416D
:1008400041F470014FF0000070BD41F0FE4141F4F1
:10085000780170BD70B54FF0FF0C4CF4E06C1CEAF1
:1008600011541DBF1CEA135594EA0C0F95EA0C0FA6
:1008700000F0A7F8A4EB050481EA030E52EA033561
:100880004FEA013100F088804FEA03334FF0805582
:1008900045EA131343EA12634FEA022245EA1115AF
:1008A00045EA10654FEA00260EF000419D4208BF60
:1008B000964244F1FD0404F5407402D25B084FEA0D
:1008C0003202B61A65EB03055B084FEA32024FF4B9
:1008D00080104FF4002CB6EB020E75EB030E22BF16
:1008E000B61A754640EA0C005B084FEA3202B6EBD6
:1008F000020E75EB030E22BFB61A754640EA5C0085
:100900005B084FEA3202B6EB020E75EB030E22BF14
:10091000B61A754640EA9C005B084FEA3202B6EB15
:10092000020E75EB030E22BFB61A754640EADC00D4
:1009300055EA060E18D04FEA051545EA16754FEA36
:1009400006164FEAC30343EA52734FEAC2025FEA54
:100950001C1CC0D111F4801F0BD141EA00014FF0E3
:1009600000004FF0004CB6E711F4801F04BF0143B4
:100970000020B4F1FD0C88BFBCF5E06F3FF6AFAED0
:10098000B5EB030C04BFB6EB020C5FEA500C50F160
:10099000000041EB045170BD0EF0004E4EEA1131E3
:1009A00014EB5C04C2BFD4EB0C0541EA045170BDEA
:1009B00041F480114FF0000E013C90E645EA060E2E
:1009C0008DE60CEA135594EA0C0F08BF95EA0C0F5C
:1009D0003FF43BAF94EA0C0F0AD150EA01347FF4A4
:1009E00034AF95EA0C0F7FF425AF104619462CE77B
:1009F00095EA0C0F06D152EA03353FF4FDAE1046DE
:100A0000194622E750EA410618BF52EA43067FF42E
:100A1000C5AE50EA41047FF40DAF52EA43057FF4BE
:100A2000EBAE12E74FF0FF3C06E000BF4FF0010CC9
:100A300002E000BF4FF0010C4DF804CD4FEA410C2D
:100A40007FEA6C5C4FEA430C18BF7FEA6C5C1BD0FA
:100A500001B050EA410C0CBF52EA430C91EA030F7B
:100A600002BF90EA020F0020704710F1000F91EAD8
:100A7000030F58BF994208BF90422CBFD8176FEAA6
:100A8000E37040F0010070474FEA410C7FEA6C5C74
:100A900002D150EA013C07D14FEA430C7FEA6C5C7B
:100AA000D6D152EA033CD3D05DF8040B704700BFA7
:100AB0008446104662468C461946634600E000BFF5
:100AC00001B5FFF7B7FF002848BF10F1000F01BDC7
:100AD0004DF808EDFFF7F4FF0CBF012000205DF892
:100AE00008FB00BF4DF808EDFFF7EAFF34BF012017
:100AF00000205DF808FB00BF4DF808EDFFF7E0FFB0
:100B000094BF012000205DF808FB00BF4DF808ED00
:100B1000FFF7CEFF94BF012000205DF808FB00BF67
:100B20004DF808EDFFF7C4FF34BF012000205DF849
:100B300008FB00BF4FEA410C7FEA6C5C02D150EA2F
:100B4000013C0AD14FEA430C7FEA6C5C02D152EAC5
:100B5000033C02D14FF0000070474FF00100704796
:100B60004FEA410212F5001215D211D56FF47873D5
:100B7000B3EB625212D94FEAC12343F0004343EA78
:100B8000505311F0004F23FA02F018BF4042704753
:100B90004FF00000704750EA013005D111F00040DD
:100BA00008BF6FF0004070474FF00000704700BF73
:100BB00080B500AF00F012F90121012000F0D0F95A
:100BC00000BF00F069F90346002BFAD001223B2157
:100BD000022000F05BFA002000F0CCFB0121022093
:100BE00000F0BEF900BF192000F02EF90346012BDA
:100BF000F9D1002000F008FA042000F031FA0420B6
:100C000000F018FA012000F099FB022000F088FAA9
:100C100000BF00F09BFA0346022BFAD1002000F03F
:100C20008DFB00F0D5FD00BF80BD80B400AF00BFDC
:100C3000BD465DF8047B704780B400AFFEE780B42A
:100C400000AFFEE780B400AFFEE780B400AFFEE780
:100C500080B400AF00BFBD465DF8047B704780B430
:100C600000AF00BFBD465DF8047B704780B400AFA5
:100C700000BFBD465DF8047B704780B400AF00BF85
:100C8000BD465DF8047B704780B500AF01210A487E
:100C900000F0E7FC0346002B0CD0002001F0B4FC70
:100CA000012001F0B1FC022001F0AEFC012102485C
:100CB00000F0F0FC00BF80BD002C014080B58AB080
:100CC00000AF01F0C5F8FFF773FF01F041FC01F040
:100CD000D1FA01F067FB01F097FA00F096FE39486F
:100CE00002F0B8FA0021002000F070FE364800F053
:100CF000C9FE4FF47A7001F027F94FF000037B62D0
:100D00004FF000033B620023FB7700233B603B1D59
:100D100000221A605A609A60DA601A615A611A8376
:100D200097ED090A00F0C4FE00F02CFF0346FB77A4
:100D3000012001F009F9CC2000F050FF442000F020
:100D40004DFF4FF4487001F0FFF800F01BFF034621
:100D5000FB77012001F0F8F8CC2000F03FFFBE2027
:100D600000F03CFF00F076FF03461A46174B1A705E
:100D700000F070FF03461A46154B1A70144B1B788F
:100D80001B021AB2114B1B781BB213431BB29AB24F
:100D9000104B1A800F4B1B8807EE903AB8EE677A1B
:100DA000F3EE006AC7EE267AC7ED097A786AFFF794
:100DB00073FB02460B46084802F0C6F9642001F0B6
:100DC000C3F8ADE770570008805700089202002072
:100DD00093020020940200209057000880B400AFD6
:100DE000184A136843F00103136000BF154B1B68DA
:100DF000C3F34003DBB2012BF8D1124A53686FF3FF
:100E00000103536000BF0F4B5B68C3F38103DBB288
:100E1000002BF8D10B4B00225A600A4B1B68094A81
:100E200023F0867323F480331360064B00221A6389
:100E3000044B4FF41F029A6000BFBD465DF8047B6F
:100E4000704700BF0010024080B485B000AF7860EA
:100E50000023FB737B681B0C03F1804303F5043311
:100E60001A687B6803F01F03012101FA03F31A409B
:100E70007B6803F01F03012101FA03F39A4202D0B9
:100E80000023FB7301E00123FB73FB7B184614373F
:100E9000BD465DF8047B704780B582B000AF00238B
:100EA0007B600023FB7002E07B6801337B601120D4
:100EB000FFF7CAFF0346012B03D07B68B3F5405F01
:100EC000F2D31120FFF7C0FF0346012B02D000230D
:100ED000FB7001E00123FB70FB7818460837BD4624
:100EE00080BD80B483B000AF78600B46FB70FB78A8
:100EF000012B16D17B681B0C03F1804303F50433EF
:100F000019687B6803F01F0301229A407B681B0C61
:100F100003F1804303F50433184641EA02030360FA
:100F200017E07B681B0C03F1804303F50433196859
:100F30007B6803F01F03012202FA03F3DA437B68A4
:100F40001B0C03F1804303F50433184601EA020346
:100F5000036000BF0C37BD465DF8047B704700009E
:100F600080B483B000AF03460A46FB711346BB71E1
:100F7000FB79042B3ED801A252F823F0910F000810
:100F8000A50F0008B90F0008CD0F0008E10F0008F9
:100F90001C4ABB7903F00103D9B2136861F3000363
:100FA000136028E0174ABB7903F00103D9B2136834
:100FB00061F3104313601EE0124ABB7903F0010392
:100FC000D9B2136861F31863136014E00D4ABB795A
:100FD00003F00103D9B2136A61F3000313620AE05C
:100FE000084ABB7903F00103D9B2536A61F30003E5
:100FF000536200E000BF00BF0C37BD465DF8047BC4
:10100000704700BF0010024080B483B000AF0346B9
:10101000FB71074AFB7903F00F03D9B2536861F300
:101020000713536000BF0C37BD465DF8047B704763
:101030000010024080B483B000AF0346FB71074A42
:10104000FB7903F00703D9B2536861F30A235360B5
:1010500000BF0C37BD465DF8047B704700100240AE
:1010600080B483B000AF0346FB71074AFB7903F0FD
:101070000703D9B2536861F3CD23536000BF0C3727
:10108000BD465DF8047B70470010024080B483B019
:1010900000AF0346FB710B46BB7113467B71FB79B6
:1010A000002B05D11D4A53686FF31043536012E0C3
:1010B0001A4A536843F480335360FB79012B05D1FE
:1010C000164A53686FF35143536004E0134A536860
:1010D00043F400335360114ABB7903F00F03D9B2D4
:1010E000536861F395435360BB791B110B4A03F0BE
:1010F0000303D9B2536861F35E735360074A7B7987
:1011000003F00103D9B2536861F3DF73536000BF8A
:101110000C37BD465DF8047B704700BF00100240ED
:1011200080B483B000AF0346FB71074AFB7903F03C
:101130000303D9B2536861F30103536000BF0C3756
:10114000BD465DF8047B70470010024080B400AFDC
:10115000044B5B68C3F38103DBB21846BD465DF800
:10116000047B70470010024080B58AB000AF786001
:1011700000233B6200237B620023FB610023BB61F1
:1011800000237B6100233B61FFF7E0FF0346FB7315
:10119000FB7B022B20D0022B69DC002B02D0012B21
:1011A00016D064E05D4B5B6DC3F34023DBB2002BD4
:1011B0000AD05A4B1B6BC3F34063DBB2002B03D046
:1011C0007B68574A1A6056E07B68564A1A6052E0BC
:1011D0007B68544A1A604EE0504B5B68C3F300438F
:1011E000DBB2BB614D4B5B68C3F38343DBB27B6215
:1011F0004A4B5B68C3F34173DBB2FB61FB69002BB5
:1012000002D17B6A0F2B06D1FB691A017B6A13445A
:1012100001337B6202E07B6A02337B62BB69002B95
:1012200006D17B6A404A03FB02F27B681A6022E027
:101230003A4B5B68C3F34043DBB2002B10D0374B13
:101240005B6DC3F30133DBB23B623B6A0233354A69
:10125000B2FBF3F37A6A03FB02F27B681A600AE0DE
:101260007B6A304A03FB02F27B681A6003E07B680A
:101270002C4A1A6000BF294B5B68C3F30313DBB22F
:101280007B612A4A7B6913441B783B617B681A683F
:101290003B69DA407B685A60204B5B68C3F30223EA
:1012A000DBB27B61224A7B6913441B783B617B681C
:1012B0005A683B69DA407B68DA60184B5B68C3F3B5
:1012C000C223DBB27B611B4A7B6913441B783B6101
:1012D0007B685A683B69DA407B689A600F4B5B68B1
:1012E000C3F30073DBB27B617B699B000B4A5268DE
:1012F000C2F38132D2B213437B610F4A7B6913443C
:101300001B783B617B689A683B69B2FBF3F27B68B0
:101310001A6100BF2837BD4680BD00BF00100240E3
:10132000006CDC0200127A0000093D00AC57000896
:10133000BC570008C4570008CC57000880B483B0DD
:1013400000AF0346FB71FB79012B05D1084A536DB1
:1013500043F03003536504E0054A536D6FF3051302
:10136000536500BF0C37BD465DF8047B704700BF76
:101370000010024080B483B000AF0346FB71074AFF
:10138000FB7903F00303D9B2536D61F30D33536559
:1013900000BF0C37BD465DF8047B7047001002406B
:1013A00080B485B000AF78600B467B800023FB7370
:1013B0007A8879887B689B680B409A4202D0002328
:1013C000FB7301E00123FB73FB7B18461437BD461A
:1013D0005DF8047B704780B483B000AF78600B4643
:1013E0007B807A887B681A6100BF0C37BD465DF848
:1013F000047B704780B483B000AF78600B467B807D
:101400007A887B685A6100BF0C37BD465DF8047B63
:10141000704780B483B000AF78600B467B80134682
:101420007B707B78002B03D07A887B681A6102E09E
:101430007A887B685A6100BF0C37BD465DF8047B33
:101440007047000080B485B000AF78607B6803F01F
:101450000703FB600C4BDB68BB60BA684FF6FF0309
:101460001340BB60FB681A02BB68134343F0BF63C1
:1014700043F40033BB60044ABB68D36000BF143739
:10148000BD465DF8047B704700ED00E080B400AF1E
:10149000044BDB681B0A03F007031846BD465DF8E2
:1014A000047B704700ED00E080B483B000AF0346DA
:1014B000FB7197F90730002B0BDBFB7903F01F0260
:1014C000074997F907305B09012000FA02F241F859
:1014D000232000BF0C37BD465DF8047B704700BF7A
:1014E00000E100E080B483B000AF03463960FB71D7
:1014F00097F90730002B0ADB3B68DAB20C4997F901
:1015000007301201D2B20B4483F800230AE03B6893
:10151000DAB20849FB7903F00F03043B1201D2B29F
:101520000B441A7600BF0C37BD465DF8047B70474C
:1015300000E100E000ED00E080B489B000AFF860A9
:10154000B9607A60FB6803F00703FB61FB69C3F1D4
:101550000703042B28BF0423BB61FB690433062B5C
:1015600002D9FB69033B00E000237B614FF0FF32AF
:10157000BB6902FA03F3DA43BB681A407B699A40FD
:101580004FF0FF317B6901FA03F3D9437B680B40CD
:10159000134318462437BD465DF8047B704780B579
:1015A00086B000AF0346B9607A60FB7300237B61AD
:1015B000FFF76CFF03467A68B9681846FFF7BCFF6F
:1015C000786197F90F3079691846FFF78BFF97F923
:1015D0000F301846FFF768FF00BF1837BD4680BDC3
:1015E00080B582B000AF0346FB71FB791846FFF768
:1015F00029FF00BF0837BD4680BD000080B483B01E
:1016000000AF0346FB71FB79042B06D1094B1B6825
:10161000084A43F00403136005E0064B1B68054AC3
:1016200023F00403136000BF0C37BD465DF8047B54
:10163000704700BF10E000E080B483B000AF786076
:101640000B46FB70FB7803F00103D9B27A6813688C
:1016500061F30003136000BF0C37BD465DF8047BE7
:10166000704780B485B000AF786039600023FB73A9
:101670007B681A693B681340002B02D00123FB737F
:1016800001E00023FB73FB7B18461437BD465DF871
:10169000047B704780B483B000AF786039603B68EA
:1016A000DA437B681A6100BF0C37BD465DF8047BE6
:1016B000704780B483B000AF78600B467B807B8836
:1016C000C3F308027B685A6000BF0C37BD465DF863
:1016D000047B704780B483B000AF786039607B686A
:1016E0001A683B681340002B01D0012300E000235F
:1016F00018460C37BD465DF8047B7047002103E0B7
:101700000B4B5B58435004310A480B4B42189A422A
:10171000F6D30A4A02E0002342F8043B084B9A42FF
:10172000F9D300F011F801F079F8FFF7C7FA704724
:101730001C5C0008000000207402002074020020DD
:10174000D4020020FEE7000080B400AF1E4BD3F8A7
:1017500088301D4A43F47003C2F888301B4A13686E
:1017600043F00103136000BF184B1B68C3F3400331
:10177000DBB2012BF8D1154A53686FF301035360B4
:1017800000BF124B5B68C3F38103DBB2002BF8D1BF
:101790000E4B00225A600D4B1B680C4A23F08673D7
:1017A00023F480331360094B00221A63074B4FF474
:1017B0001F029A60044B4FF000629A6000BFBD4662
:1017C0005DF8047B704700BF00ED00E000100240B0
:1017D00080B588B000AF0023BB610023FB6100230C
:1017E0007B6100233B610023FB600023BB60FFF7AC
:1017F000ADFC0346FB71FB79022B20D0022B69DC88
:10180000002B02D0012B16D064E03F4B5B6DC3F37D
:101810004023DBB2002B0AD03B4B1B6BC3F340636E
:10182000DBB2002B03D0394B394A1A6056E0374BF4
:10183000384A1A6052E0354B364A1A604EE0324B55
:101840005B68C3F30043DBB23B612F4B5B68C3F3C0
:101850008343DBB2FB612C4B5B68C3F34173DBB2A8
:101860007B617B69002B02D1FB690F2B06D17B6961
:101870001A01FB6913440133FB6102E0FB69023387
:10188000FB613B69002B06D1FB69234A02FB03F392
:101890001E4A136022E01C4B5B68C3F34043DBB27B
:1018A000002B10D0184B5B6DC3F30133DBB2BB616F
:1018B000BB690233174AB2FBF3F3FA6902FB03F385
:1018C000124A13600AE0FB69124A02FB03F30F4A53
:1018D000136003E00D4B0F4A1A6000BF0A4B5B68B0
:1018E000C3F30313DBB2FB600C4AFB6813441B78A1
:1018F000BB60064B1A68BB6822FA03F3034A136005
:1019000000BF2037BD4680BD00100240000000200F
:10191000006CDC0200127A0000093D00D457000878
:1019200080B584B000AF0346FB71FB7923F00F0351
:10193000FB73FB791B01BB73FB7B43F00C03DBB236
:101940003B72FB7B43F00803DBB27B72BB7B43F053
:101950000C03DBB2BB72BB7B43F00803DBB2FB7250
:1019600007F10803042219464E2000F015FF00BFBE
:101970001037BD4680BD80B584B000AF0346FB7113
:10198000FB7923F00F03FB73FB791B01BB73FB7B1C
:1019900043F00D03DBB23B72FB7B43F00903DBB288
:1019A0007B72BB7B43F00D03DBB2BB72BB7B43F0AE
:1019B0000903DBB2FB7207F10803042219464E202B
:1019C00000F0EAFE00BF1037BD4680BD80B582B092
:1019D00000AF786039607B68002B03D07B68012BF7
:1019E00005D009E03B6843F080033B6004E03B68BE
:1019F00043F0C0033B6000BF3B68DBB21846FFF713
:101A00008FFF00BF0837BD4680BD80B500AF3220D4
:101A100000F09AFA3020FFF783FF052000F094FAD7
:101A20003020FFF77DFF012000F08EFA3020FFF715
:101A300077FF0A2000F088FA2020FFF771FF0A20C4
:101A400000F082FA2820FFF76BFF012000F07CFAFB
:101A50000820FFF765FF012000F076FA0120FFF76C
:101A60005FFF012000F070FA012000F06DFA0620FF
:101A7000FFF756FF012000F067FA0C20FFF750FF38
:101A800000BF80BD80B582B000AF786006E07B68A3
:101A90005A1C7A601B781846FFF76DFF7B681B782D
:101AA000002BF4D100BF00BF0837BD4680BD000049
:101AB00080B58AB000AF87ED010A0023BB6007F153
:101AC0000C0300221A605A609A60DA601A615A6147
:101AD0001A8300210020FFF779FF7868FEF7DCFC0D
:101AE00002460B4607F10800074901F0BBFB07F16E
:101AF00008031846FFF7C6FF4320FFF73CFF00BF6F
:101B00002837BD4680BD00BFE457000880B584B0CB
:101B100000AF3B4600221A605A609A60DA600123E7
:101B20003B60084BBB600123FB711023BB7100239A
:101B30003B713B46184600F081FA00BF1037BD46A6
:101B400080BD00BF0008014080B584B000AF3B46B7
:101B500000221A605A609A60DA6001233B60084BE9
:101B6000BB600123FB710023BB7118237B713B46D3
:101B7000184600F063FA00BF1037BD4680BD00BFB5
:101B80000008014080B582B000AF0023FB71FFF771
:101B9000BDFF002201211048FFF73BFC4FF4F0701D
:101BA00000F09CF9FFF7D0FF502000F097F90121D9
:101BB0000948FFF7F5FB0346002B02D10123FB7117
:101BC00001E0FF23FB714FF4C87000F087F9FB7947
:101BD00018460837BD4680BD0008014080B584B076
:101BE00000AF0346FB71FFF791FF0023FB6026E087
:101BF000FA79FB6842FA03F303F00103002B0FD0DC
:101C0000FFF784FF002201211148FFF702FC0120A9
:101C100000F064F9FFF798FF3C2000F05FF90BE05B
:101C2000FFF774FF002201210948FFF7F2FB3C2077
:101C300000F054F9FFF788FFFB680133FB60FB6895
:101C4000072BD5DD00BF00BF1037BD4680BD00BFEC
:101C50000008014080B582B000AF0023FB71FFF7A0
:101C600073FF00233B6022E0FFF750FF00220121B9
:101C70001348FFF7CEFB022000F030F9FFF764FFB6
:101C800001210F48FFF78CFB0346002B09D00122EE
:101C90003B6802FA03F35AB297F9073013435BB279
:101CA000FB713C2000F01AF93B6801333B603B6854
:101CB000072BD9DDFB7918460837BD4680BD00BF2C
:101CC0000008014080B400AF01231846BD465DF80E
:101CD000047B704780B582B000AF7860396000F057
:101CE00097FD034616221A604FF0FF331846083757
:101CF000BD4680BD80B582B000AF78604FF0FF3147
:101D00007868FFF7E7FFFEE780B586B000AFF860C0
:101D1000B9607A6000237B610AE0AFF3008001467E
:101D2000BB685A1CBA60CAB21A707B6901337B6106
:101D30007A697B689A42F0DB7B6818461837BD46A3
:101D400080BD80B586B000AFF860B9607A600023CE
:101D50007B6109E0BB685A1CBA601B78184600F02A
:101D600083F87B6901337B617A697B689A42F1DB96
:101D70007B6818461837BD4680BD80B483B000AF7D
:101D800078604FF0FF3318460C37BD465DF8047B92
:101D9000704780B483B000AF786039603B684FF41F
:101DA00000525A60002318460C37BD465DF8047B8C
:101DB000704780B483B000AF7860012318460C37B9
:101DC000BD465DF8047B704780B485B000AFF86015
:101DD000B9607A60002318461437BD465DF8047B6D
:101DE0007047000080B586B000AF7860144A154B8C
:101DF000D31A7B617B693B61134B1B68002B02D1BB
:101E0000114B124A1A60104B1A687B6813443A69E6
:101E10009A4207D200F0FCFC03460C221A604FF0F5
:101E2000FF3309E0084B1B68FB60074B1A687B68AF
:101E30001344054A1360FB6818461837BD4680BD39
:101E4000008001200004000098020020D802002039
:101E500080B483B000AF07F110037B6000BF0C3784
:101E6000BD465DF8047B704780B582B000AF7860F6
:101E700000BF80210848FFF72DFC0346002BF8D057
:101E80007B689BB219460448FFF713FC7B68184631
:101E90000837BD4680BD00BF0038014080B500AFA7
:101EA0000420FFF7ABFB094B1B68094AA2FB032385
:101EB0009B0C084A1360074B1B684FF47A7202FBB5
:101EC00003F3054A136000BF80BD00BF000000207F
:101ED00083DE1B439C020020A002002080B485B05A
:101EE00000AF78600023FB60154B1B6815497A68CA
:101EF00002FB03F34B60134B00229A60114B1B68EB
:101F0000104A43F0010313600E4B1B68FB60FB6833
:101F100003F00103002B04D0FB6803F48033002B93
:101F2000F2D0084B1B68074A23F001031360054BEE
:101F300000229A6000BF1437BD465DF8047B7047ED
:101F40009C02002010E000E080B485B000AF0346A2
:101F5000FB800023FB6035E0FB88322B0AD91E4B47
:101F60001B681E4A322101FB03F35360FB88323B9E
:101F7000FB8008E0FB88184A1268184902FB03F34B
:101F80004B600023FB80154B00229A60134B1B68AB
:101F9000124A43F001031360104B1B68FB60FB689F
:101FA00003F00103002B04D0FB6803F48033002B03
:101FB000F2D00A4B1B68094A23F001031360074B58
:101FC00000229A60FB88002BC6D100BF00BF1437E7
:101FD000BD465DF8047B7047A002002010E000E0E1
:101FE00080B483B000AF78607B689B68D9687B68F9
:101FF0001A687B689B684A40DA6000BF0C37BD46B0
:102000005DF8047B704780B483B000AF78600B4606
:10201000FB70FB78002B05D07B689B687A681268A0
:102020001A6104E07B689B687A6812685A6100BF95
:102030000C37BD465DF8047B7047000080B584B066
:1020400000AF78607B689B68002B00F0C8807B68DD
:102050009B68654A934204D101216448FEF741FF21
:102060001DE07B689B68624A934204D1012161486C
:10207000FEF737FF13E07B689B685F4A934204D109
:1020800001215E48FEF72DFF09E07B689B685C4AF2
:10209000934204D101215B48FEF723FF00BF7B6818
:1020A0001B683B817B689B79032B02D100237B81DA
:1020B00032E07B689B79002B17D17B685B799BB200
:1020C00003F00F037B817B685B79182B04D17B685D
:1020D0009B683A891A611FE07B685B79282B1BD1CA
:1020E0007B689B683A895A6116E07B689B791BB2D2
:1020F00003F008031AB27B681B791BB203F00403D8
:102100001BB213431AB27B68DB791BB203F00303E3
:102110001BB213431BB27B813B89DBB2002B2BD05C
:102120000023FB6025E03A89FB6842FA03F303F0E1
:102130000103002B1AD07B689B681A68FB689B0020
:102140000F2101FA03F3DB4319467B689B680A40C1
:102150001A607B689B681A687989FB689B0001FAA2
:1021600003F319467B689B680A431A60FB680133D6
:10217000FB60FB68072BD6D93B89FF2B30D93B8905
:102180001B0A3B810023FB6025E03A89FB6842FA89
:1021900003F303F00103002B1AD07B689B685A6895
:1021A000FB689B000F2101FA03F3DB4319467B68B0
:1021B0009B680A405A607B689B685A687989FB680B
:1021C0009B0001FA03F319467B689B680A435A6037
:1021D000FB680133FB60FB68072BD6D900E000BF2A
:1021E0001037BD4680BD00BF000801400200180046
:1021F000000C01400300180000100140040018000A
:10220000001401400500180080B582B000AF012124
:102210001348FEF766FE01211248FEF762FE012117
:102220001148FEF75EFE80211048FFF7D4F84021E8
:102230000E48FFF7D0F80023FB7109E0FB791B0182
:102240000B4A13441846FFF7F9FEFB790133FB7183
:10225000FB79012BF2D900BF00BF0837BD4680BD16
:10226000020018000300180015001C00000C0140BB
:102270008400002080B582B000AF0023FB710CE029
:10228000FA7913465B001344DB00124A13441846E4
:1022900000F026F8FB790133FB71FB79012BEFD9B4
:1022A0000320FFF79DF9002200211920FFF777F99D
:1022B000002200212C20FFF772F901210648FFF7C8
:1022C000BBF901210548FFF7B7F900BF0837BD4644
:1022D00080BD00BF34000020002C014000340140CC
:1022E00080B582B000AF78607B681B68002B4CD053
:1022F0007B681B68274A934204D101212648FEF7D8
:10230000F0FD09E07B681B68244A934204D1012157
:102310002348FEF7E6FD00BF7B681B687A685268B9
:10232000DA627B681B687A6892689A627B681A68CE
:10233000536943F0010353617B68197B7B681A681A
:102340000B4603F00703D9B2136861F30613136059
:102350007B681B7D012B09D17B681B68D9687B6872
:102360001A697B681B680A43DA600FE07B681B7D93
:10237000002B0BD17B681B68D9687B681B69DA432B
:102380007B681B680A40DA6000E000BF0837BD4682
:1023900080BD00BF002C01400B001800003401403C
:1023A0000D00180080B582B000AF0023FB710CE077
:1023B000FB791B01094A13441846FFF73FFE084802
:1023C00000F010F8FB790133FB71FB79012BEFD999
:1023D00000BF00BF0837BD4680BD00BF74000020AD
:1023E0006400002080B58AB000AF78607B681B680D
:1023F000002B00F09D807B681B684F4A934203D1FD
:1024000001214E48FEF76DFD07F10C031846FEF75B
:10241000ABFE7B681B68484A93420ED07B681B6802
:10242000474A934209D07B681B68464A934204D0CE
:102430007B681B68444A934202D17B697B6201E05E
:10244000BB697B627A6A13469B0013445B001A46A1
:102450007B685B68B2FBF3F33B62396A3B4BA3FBDF
:102460000123DA0813469B0013445B00CA1A042AAE
:1024700006D83B6A354AA2FB0323DB083B6206E031
:102480003B6A324AA2FB0323DB0801333B627B68D1
:102490001A683B6A99B2936861F30F0393607B6893
:1024A000197A7B681A680B4603F00103D9B2D36826
:1024B00061F30C33D3607B68597A7B681A680B46EA
:1024C00003F00303D9B2136961F30D3313617B6821
:1024D000997A7B681A680B4603F00103D9B2D36876
:1024E00061F3C303D3607B68D97A7B681A680B46B3
:1024F00003F00103D9B2D36861F38203D3607B6830
:10250000197B7B681A680B4603F00103D9B2536943
:1025100061F3C30353617B68597B7B681A680B4680
:1025200003F00103D9B2D36861F34D33D36000E007
:1025300000BF2837BD4680BD003801400E0018009E
:10254000006001400064014000680140CDCCCCCC6B
:1025500080B582B000AFFFF7A1FC0023FB7117E04C
:10256000FB791B01234A13441846FFF767FDFB79EB
:102570001B01204A1A44FB791E491B010B440F33EF
:102580001B7819461046FFF73EFDFB790133FB71BE
:10259000FB79022BE4D91848FFF750FD0023BB71EB
:1025A0000CE0BA7913465B001344DB00134A134472
:1025B0001846FFF795FEBB790133BB71BB79012B40
:1025C000EFD90320FFF70CF8002200211920FEF7B5
:1025D000E6FF002200212C20FEF7E1FF0121084840
:1025E000FFF72AF801210748FFF726F800BF083750
:1025F000BD4680BD04000020A4020020340000205D
:10260000002C01400034014080B582B000AF034689
:10261000FB71FB791B01044A13441846FFF7E0FCE9
:1026200000BF0837BD4680BD0400002080B500AF64
:102630000520FFF753FC00BF80BD000080B500AF50
:10264000FFF7F4FF80210A48FEF7C5FE4021084845
:10265000FEF7C1FEFFF7EAFF80210548FEF7CAFE3C
:10266000FFF7E4FF40210248FEF7C4FE00BF80BD33
:10267000000C014080B500AF40210B48FEF7BAFEC8
:1026800080210948FEF7B6FEFFF7D0FF402106483B
:10269000FEF7A1FEFFF7CAFF80210348FEF79BFE6D
:1026A000FFF7C4FF00BF80BD000C014080B582B0C1
:1026B00000AF0346FB7140211A48FEF79BFE8021C4
:1026C0001848FEF788FEFFF7B1FF17E08021154894
:1026D000FEF766FE0346012B0BD040211148FEF7A2
:1026E0007AFEFFF7A3FF40210E48FEF783FE00238A
:1026F00014E0FFF79BFFFB79013BFB71FB79002B9B
:10270000E4D140210748FEF766FEFFF78FFF402126
:102710000448FEF76FFEFFF789FF012318460837CC
:10272000BD4680BD000C014080B584B000AF0346BB
:10273000FB710823FB731BE040211648FEF75AFE8D
:1027400097F90730002B04DA80211248FEF743FE88
:1027500003E080210F48FEF74DFEFFF767FFFB798E
:102760005B00FB7140210B48FEF735FEFFF75EFF73
:10277000FB7B5A1EFA73002BDED140210548FEF781
:1027800039FE80210348FEF726FE00BF1037BD4604
:1027900080BD00BF000C014080B584B000AF03468F
:1027A0003960FB801346BB80FFF748FFFB88DBB234
:1027B0001846FFF7B9FF0A20FFF778FF0346012B01
:1027C00003D1FFF757FF01231DE00023FB8113E036
:1027D000FB893A6813441B781846FFF7A5FF0A20C7
:1027E000FFF764FF0346012B03D1FFF743FF0123EB
:1027F00009E0FB890133FB81FA89BB889A42E7D360
:10280000FFF738FF002318461037BD4680BD000093
:10281000014B1868704700BFA400002070B50D4D33
:102820000D4C641BA4100026A64209D10B4D0C4C84
:1028300002F092FF641BA4100026A64205D170BDD1
:1028400055F8043B98470136EEE755F8043B9847A6
:102850000136F2E7145C0008145C0008145C000800
:10286000185C000802440346934200D1704703F805
:10287000011BF9E72DE9FF4755EC104B002D0E46E3
:1028800019462B46BBBF05F100431D4600232D23EF
:102890000B700D9BDDF830A0914623F02008BCBFE3
:1028A00022461446B8F1460F05D0B8F1450F00D1C5
:1028B0000136022100E0032103AB019302AB009338
:1028C00045EC104B5346324600F03AFEB8F1470F44
:1028D000074602D119F0010F22D0B8F1460F07EBDD
:1028E000060910D13B78302B0AD100220023204664
:1028F0002946FEF7EDF818B9C6F10106CAF80060DE
:10290000DAF8003099440022002320462946FEF7D9
:10291000DFF808B1CDF80C903022039B4B4507D36C
:10292000039B0E9ADB1B3846136004B0BDE8F087AA
:10293000591C03911A70F0E7F7B503460029B8BF98
:10294000494203F8022BB4BF2D222B2209294270E1
:102950002ADD0DF10704A4460A27A6460A4691FB84
:10296000F7F607FB16153035632A04F1FF340EF82D
:10297000015C3146F1DC3031AEF1020504F8011C96
:10298000441C294661450AD30DF10902A2EB0E024F
:10299000654588BF00221344181A03B0F0BD11F832
:1029A000012B04F8012FEDE7302330318370C17023
:1029B000031DF1E72DE9F04F2DED028B8DB00C4694
:1029C000DDF8608016461F46054601F05FFDD0F831
:1029D00000A05046FDF7B8FD00230A932368059335
:1029E000D8F8003094F818B0073323F0070303F148
:1029F0000802C8F80020D3E90023C4E91223D4E96F
:102A0000128929F000430793CDF8188008EE100AC8
:102A10009F4BDDE906014FF0FF32FEF78BF888BBD4
:102A2000DDE906019A4B4FF0FF32FEF765F848BB2F
:102A30000022002340464946FEF754F810B12D23EA
:102A400084F84330934B9448BBF1470F94BF9846AA
:102A5000804603232361059B23F0040222604FF08C
:102A60000009009733460BAA2146284600F0D8F902
:102A7000013040F090804FF0FF300DB0BDEC028B84
:102A8000BDE8F08F42464B4640464946FEF752F8B5
:102A900040B14B46002BBCBF2D2384F843307F4808
:102AA0007F4BD1E763680BF0DF0206925A1C3FD1DF
:102AB00006236360059B616843F4806200230393EF
:102AC0000AABCDE901B309AB49EC108B009322604E
:102AD0000DF123032846FFF7CDFE069B0999472BEE
:102AE000804608D1C81C02DB6368994241DDABF126
:102AF000020B5FFA8BFBBBF1650F20D801395A46F8
:102B000004F150000991FFF717FF0A9A1318012AE0
:102B10008146236102DC2268D20701D5013323619B
:102B20009DF82330002B9CD02D2384F8433098E768
:102B3000069A472ABED1002BBCD10123B9E7BBF1CD
:102B4000660F18D1002963680BDD216113B9226873
:102B5000D00702D501330B442361A1654FF0000972
:102B6000DEE713B92268D20701D50233F4E7012367
:102B7000F2E74FF0670B0A9B994205DB236821615E
:102B8000D807EAD54B1CE7E70029D4BFC1F1020200
:102B900001221344E0E723685A0507D4236942461B
:102BA00031462846B84701302CD164E7BBF1650FA8
:102BB00040F2E080D4E9120100220023FDF788FFF3
:102BC000002834D0374A012331462846B84701301F
:102BD0003FF451AFDDE909239A4202DB2368D807AD
:102BE00010D518EE103A524631462846B847013003
:102BF0003FF441AF4FF0000804F11A090A9B013B72
:102C0000434509DC23689B0700F10581E0680B9BC5
:102C10009842B8BF184630E701234A463146284655
:102C2000B84701303FF427AF08F10108E6E7099BF8
:102C3000002B39DC1B4A012331462846B8470130B6
:102C40003FF419AFDDE90923134302D12368D90703
:102C5000D8D518EE103A524631462846B8470130CA
:102C60003FF409AF4FF0000904F11A0A099B5B42D7
:102C70004B4501DC0A9B92E7012352463146284628
:102C8000B84701303FF4F7AE09F10109EEE700BFA4
:102C9000FFFFEF7FF4570008F857000800580008BE
:102CA000FC570008045800080A9AA36D9A42A8BF6E
:102CB0001A46002A914637DC4FF0000B29EAE979E1
:102CC00004F11A02A36D0593A3EB09035B4533DC02
:102CD000DDE909239A423BDB2368DA0738D40A9BF3
:102CE000059A09999A1AA3EB01099145A8BF914643
:102CF000B9F1000F35DC4FF0000829EAE97904F159
:102D00001A0ADDE909239B1AA3EB090343457FF760
:102D100079AF0123524631462846B84701303FF487
:102D2000AAAE08F10108ECE71346314642462846B0
:102D3000B8470130C0D19EE60123314628460592AE
:102D4000B84701303FF497AE059A0BF1010BB9E794
:102D500018EE103A524631462846B8470130BED1E7
:102D600089E6059A4B46424431462846B847013029
:102D7000C1D180E60A9A012A01DCDB0738D501239C
:102D8000424631462846B84701303FF474AE18EE4B
:102D9000103A524631462846B84701303FF46BAEF0
:102DA000D4E9120100220023FDF792FED8B90A9B54
:102DB00008F10102013B31462846B84701300ED1E7
:102DC00059E60123524631462846B84701303FF4C0
:102DD00052AE08F101080A9B013B4345F1DC4B462A
:102DE00004F15002DCE64FF0000804F11A0AF2E7A1
:102DF00001234246DFE701234A4631462846B847C9
:102E000001303FF438AE08F10108E3680B995B1A12
:102E10004345F0DCFAE64FF0000804F11909F4E745
:102E20002DE9F047164699468A680B69DDF820803F
:102E30009342B8BF1346336091F8432007460C46CF
:102E40000AB1013333602368990642BF3368023305
:102E50003360256815F0060506D104F1190AE36808
:102E600032689B1AAB4226DC94F84320131E22687A
:102E700018BF012392062BD404F143024946384679
:102E8000C04701301ED02368E568326803F00603AE
:102E9000042B08BFAD1AA36822690CBF25EAE575AB
:102EA00000259342C4BF9B1AED1800261A34B54280
:102EB0001AD1002008E00123524649463846C0474F
:102EC000013003D14FF0FF30BDE8F0870135C6E790
:102ED000E1185A1C302081F84300224494F8451030
:102EE00082F843100233C7E7012322464946384699
:102EF000C0470130E6D00136D9E700002DE9FF4791
:102F00000F7E0C9D782F914680460C469A4601F123
:102F1000430207D8622F0AD8002F00F0D880582F1C
:102F200000F0A38004F1420584F842703AE0A7F172
:102F30006303152BF6D801A151F823F0952F000853
:102F4000A92F0008252F0008252F0008252F00088D
:102F5000252F0008A92F0008252F0008252F00087D
:102F6000252F0008252F0008B5300008D92F0008AC
:102F700097300008252F0008252F0008D7300008BB
:102F8000252F0008D92F0008252F0008252F00081D
:102F90009F3000082B681A1D1B682A6004F1420547
:102FA00084F842300123A3E020682968060601F175
:102FB00004030AD50E682B60002E03DA2D23764217
:102FC00084F843305E480A2319E00E682B6010F045
:102FD000400F18BF36B2EFE72B682068191D296033
:102FE000010601D51E6802E04606FBD51E8854483E
:102FF0006F2F0CBF08230A23002184F84310656853
:10300000A560002DA2BF216821F0040121600EB946
:10301000002D4DD01546B6FBF3F103FB1167C75DDC
:1030200005F8017D3746BB420E46F4D9082B0BD17B
:103030002368DE0708D5236961689942DEBF302323
:1030400005F8013C05F1FF35521B2261CDF800A0C7
:103050004B4603AA21464046FFF7E2FE01304CD121
:103060004FF0FF3004B0BDE8F087354881F8457077
:103070002968236851F8046B29601D0614D5DF0701
:1030800044BF43F0200323601EB9236823F02003CC
:1030900023601023B0E7236843F0200323607823E4
:1030A000284884F84530E3E7590648BFB6B2E6E75A
:1030B0001546BBE72B6826686169181D2860350630
:1030C0001B6801D5196002E07006FBD5198000234A
:1030D00023611546BAE72B681A1D2A601D686268CD
:1030E00000212846FDF73CFA08B1401B6060636888
:1030F0002361002384F84330A8E723692A46494620
:103100004046D0470130ABD023689B0713D4E0681A
:10311000039B9842B8BF1846A4E7012332464946AC
:103120004046D04701309BD00135E36803995B1AD4
:10313000AB42F2DCEBE7002504F11906F5E700BF2E
:1031400006580008175800080FB40A4B13B51C683E
:1031500024B1A36913B9204601F0FAF805AB049A2B
:10316000A1680193204602F013F802B0BDE81040B8
:1031700004B07047A400002070B50E46054618B193
:1031800083690BB901F0E4F8AB69AC6813B9284660
:1031900001F0DEF82C4B9C4220D16C68636EDB079B
:1031A00005D4A389980502D4A06D01F074F9A38910
:1031B00019071DD52369DBB1013EA36816F8011F6D
:1031C000013BA36039BB002B38DA22460A2128468E
:1031D00000F068F8013011D00A2511E01B4B9C4229
:1031E00001D1AC68DAE71A4B9C4208BFEC68D5E71E
:1031F0002146284600F0A8F80028DDD04FF0FF3522
:10320000636EDA0705D4A3899B0502D4A06D01F093
:1032100043F9284670BD002B04DAA2699A4206DC05
:103220000A2904D023685A1C22601970C5E7224677
:10323000284600F037F80130BFD1DFE723680A25C0
:103240005A1C22601D70DBE7FC5800081C5900085E
:10325000DC580008024B01461868FFF78DBF00BF1D
:10326000A40000200EB400B59CB01DAB02900690E7
:103270006FF00041094807910491094953F8042B64
:1032800005910068019302A901F058FE029B0022FB
:103290001A701CB05DF804EB03B07047A400002066
:1032A0000802FFFFF8B50E461446054618B18369BB
:1032B0000BB901F04DF8214B9C422BD16C68A369EE
:1032C000A360A3891A072FD523696BB323692068EC
:1032D000C01A6369F6B28342374604DC21462846A9
:1032E00000F0A2FF30BBA368013BA36023685A1C17
:1032F00022601E7063690130834204D0A389DB071A
:1033000006D50A2E04D12146284600F08DFF88B943
:103310003846F8BD0A4B9C4201D1AC68CFE7094B57
:103320009C4208BFEC68CAE72146284600F00CF82A
:103330000028CBD04FF0FF37EAE700BFFC58000869
:103340001C590008DC580008324B70B51D68064651
:103350000C4625B1AB6913B9284600F0F9FF2E4B96
:103360009C420FD16C68A389B4F90C2019072CD4A6
:10337000DD0611D40923336042F04003A3814FF0EE
:10338000FF303EE0254B9C4201D1AC68EBE7244B7B
:103390009C4208BFEC68E6E7580712D5616B41B163
:1033A00004F14403994202D0304601F08BFC002323
:1033B0006363A38923F02403A3810023636023694B
:1033C0002360A38943F00803A38123694BB9A38930
:1033D00003F42073B3F5007F03D02146304601F09B
:1033E00081F8A089B4F90C2010F001030AD0002361
:1033F000A36063695B42A361236943B910F0800055
:10340000BAD170BD810758BF6369A360F4E700209B
:10341000F7E700BFA4000020FC5800081C59000872
:10342000DC5800082DE9F74F03690C69A3420746F1
:10343000C0F28180013C01F1140800F1140505EB94
:103440008403019358F8243055F8242001339A421C
:103450004FEA840B08EB8409B2FBF3F631D34FF04B
:10346000000E4046AC46F24650F8042B93B206FBE1
:1034700003E34FEA134E9BB2AAEB0303DCF800A070
:10348000120C13FA8AF306FB02E20093009B4FEA48
:10349000124E92B2C2EB1A4202EB2342BDF8003048
:1034A000814543EA02434CF8043B4FEA224ADBD20F
:1034B00055F80B302BB9019B043B9D421A462ED385
:1034C0003C61384601F0E6FA002824DB0136284644
:1034D0004FF0000C58F8042BD0F800E093B2ACEB9E
:1034E0000303120C13FA8EF3C2EB1E4202EB2342CB
:1034F0009BB243EA0243C14540F8043B4FEA224CE9
:10350000E8D255F8242005EB840322B9043B9D4200
:103510001A460AD33C61304603B0BDE8F08F12680A
:10352000043B002ACCD1013CC7E71268043B002AC7
:10353000F0D1013CEBE70020EEE7000000000000C6
:103540002DE9F04F2DED048B57EC106B93B0456ACD
:10355000DDF88080069110EE10AA044609920C93C3
:10356000BB4675B9102000F0FDFF0246606220B92D
:10357000A74BEA21A74801F0A1FFC0E9015505606A
:10358000C560636A196851B15A684A600123934063
:103590008B60204601F03CF8636A00221A603B1EF3
:1035A000AABF002323F0004BC8F800309A4BBCBFE1
:1035B0000122C8F8002033EA0B031BD10C9A42F217
:1035C0000F731360CBF31303334300F09285219BF9
:1035D00063B9924B22E0924B01930833219A136016
:1035E000019813B0BDEC048BBDE8F08F8B4B0193B9
:1035F0000333F3E70022002350465946FDF768FAEB
:103600004BEC19AB804658B10C9A01231360219BF7
:10361000002B00F06B8583481860431E0193DFE7A1
:103620004BEC10AB10AA11A9204601F0D9FACBF34C
:103630000A5508EE100A002D00F0848019EE903A29
:10364000C3F3130343F07F57564647F44017A5F2E0
:10365000FF35CDF83880744B002230463946FCF7F0
:10366000BBFD65A3D3E90023FCF7CAFF64A3D3E93C
:103670000023FCF7B3FD064628460F46FCF7FAFE8A
:1036800061A3D3E90023FCF7BBFF02460B4630469B
:103690003946FCF7A3FD06460F46FDF761FA002206
:1036A0000090002330463946FDF71CFA50B10098CF
:1036B000FCF7E0FE32463B46FDF70AFA10B9009BE4
:1036C000013B0093009B162B5AD8009A574B03EBF3
:1036D000C203D3E9002351EC190BFDF703FA0028CC
:1036E00050D0009B013B009300230B93109B5D1B6C
:1036F0006B1E059345BFC5F101030493002300230E
:103700004CBF05930493009B002B3DDB059B009A67
:103710000A921344059300230793069B092B00F29A
:103720008980052BC4BF043B0693069BA3F10203CB
:10373000CCBF00250125032B00F28780DFE803F0D2
:103740002D3A3859DDE910531D4405F23243202B40
:10375000C1BFC3F1400305F212400BFA03F326FA8E
:1037600000F0DABFC3F1200306FA03F01843FCF7B8
:1037700071FE01230646A1F1F877013D0E936AE739
:103780000123B2E70B90B1E7049B009A9B1A0493C4
:103790005342079300230A93BFE700230893099B32
:1037A000002B55DC0123CDE902331A4609920CE0C7
:1037B0000123F3E70023099A0893009B1344029323
:1037C0000133012B0393B8BF0123606A00224260DA
:1037D000042202F114069E4241683DD9204600F0C1
:1037E000D7FE019000283BD1114B02464FF4D57112
:1037F000C0E60123DFE700BF61436F63A787D23FC5
:10380000B3C8608B288AC63FFB799F501344D33FCF
:10381000355800084C5800080000F07F3158000867
:1038200028580008055800080000F83FE85900082B
:10383000CA58000801250023069308954FF0FF336E
:10384000CDE9023300221223B0E701230893F5E704
:10385000099BCDE90233B8E7013141605200B8E776
:10386000636A019A1A60039B0E2B00F29D80002D63
:1038700000F09A80009B002B32DDB74A03F00F0363
:1038800002EBC303D3E90089009BD8054FEA231755
:1038900016D5B24B51EC190BD3E90823FCF7DAFF2C
:1038A00007F00F0782468B460325AC4E57B94246B8
:1038B0004B4650465946FCF7CDFF82468B4628E0E2
:1038C0000225F2E7F90708D540464946D6E9002324
:1038D000FCF796FE0135804689467F100836E5E7FD
:1038E00000F09B80009B9D4F5E429B4B06F00F02B9
:1038F00003EBC203D3E9002351EC190BFCF780FE64
:10390000361182468B4600230225002E7AD1002BE9
:10391000D3D10B9B002B00F08280914B00225046AC
:103920005946FDF7DFF8002879D0039B002B76D0AD
:10393000029B002B36DD009B504659465F1E00223D
:10394000884BFCF75DFE029E82468B460135284679
:10395000FCF790FD52465B46FCF752FE824B00227C
:10396000FCF73CFCD046D9468246A1F1507B002EA4
:1039700058D17E4B002240464946FCF72DFC52466A
:103980005B4680468946FDF7CBF8002840F09582DB
:1039900052460BF1004340464946FDF7A3F8002884
:1039A00040F089825BEC19AB119B002BC0F248817F
:1039B000009A0E2A00F34481674B03EBC203D3E95C
:1039C0000089099B002B80F2D580039B002B00F31C
:1039D000D18040F06F82654B002240464946FCF79B
:1039E0000FFE52465B46FDF791F8039E37460028CE
:1039F00040F04582019D312305F8013B009B0133D6
:103A0000009340E2F20705D5D7E90023FCF7F8FD63
:103A1000013501237610083777E7022579E7009F03
:103A2000039E94E701994C4B31440D91089903EBA7
:103A3000C60353E90223002943D04D490020FCF777
:103A400009FF52465B46FCF7C7FB019D82468B4649
:103A500049464046FDF784F80646FCF70BFD024652
:103A60000B4640464946FCF7B7FB303605F8016B7C
:103A700052465B4680468946FDF734F8002863D1FC
:103A800042464B4636490020FCF7A6FB52465B46B1
:103A9000FDF728F8002840F0B5800D9B9D4281D0AD
:103AA000304B002250465946FCF7AAFD2D4B82466A
:103AB0008B46404649460022FCF7A2FD80468946D7
:103AC000C6E750465946FCF79BFD0D9B019D0F93A1
:103AD00082468B4649464046FDF742F80646FCF7CB
:103AE000C9FC303602460B4640464946FCF774FB9B
:103AF00005F8016B0D9B9D42804689464FF0000200
:103B000024D11B4B50465946FCF768FB02460B4636
:103B100040464946FDF704F8002873D152465B46FB
:103B200013490020FCF758FB02460B464046494625
:103B3000FCF7D8FF00283FF435AF0F9D6B1E0F93A5
:103B400015F8013C302BF8D0009749E0054BFCF705
:103B500057FD80468946BDE7E8590008C05900086E
:103B60000000F03F0000244000001C400000144012
:103B70000000E03F019D56465F4642464B463046B8
:103B80003946FCF767FEFCF7EBFF8246FCF772FC58
:103B900042464B46FCF734FD02460B46304639465A
:103BA0000AF13006FCF718FB05F8016B019E039F34
:103BB000AE1BB74202460B4635D1FCF70FFB42461F
:103BC0004B4606460F46FCF7ABFFD0B942464B4684
:103BD00030463946FCF77CFF10B11AF0010F10D1C6
:103BE000204618EE101A00F013FD002300982B70E9
:103BF0000C9B01301860219B002B3FF4F1AC1D6041
:103C0000EEE4009F2B461D4613F8012D392A06D1FC
:103C1000019A9A42F7D10199302201370A701A7835
:103C200001321A7090E7A64B0022FCF7E9FC002253
:103C3000002306460F46FCF74BFF00289DD0CFE738
:103C4000089A002A00F0D780069A012A00F3BA8069
:103C50000E9A002A00F0B28003F23343079E049DBF
:103C6000049A1A440492059A01211A4420460592A6
:103C700000F086FD0746002D0CDD059B002B09DDBD
:103C8000AB42049AA8BF2B46D21A0492059AED1AA9
:103C9000D31A0593079B1BB3089B002B00F0AF8042
:103CA000002E13DD39463246204600F029FE18EE7C
:103CB000102A01460746204600F078FD18EE101A3B
:103CC0008046204600F0A4FC08EE108A079B9A1B51
:103CD00006D018EE101A204600F012FE08EE100A68
:103CE0000121204600F04CFD0A9B002B064640F3C4
:103CF00088801A460146204600F002FE069B012BF2
:103D0000064640F381804FF00008336906EB8303D9
:103D1000186900F0E5FCC0F12000059B184410F084
:103D20001F0000F09280C0F12003042B40F38A8032
:103D3000C0F11C00049B03440493059B0344054409
:103D40000593049B002B07DD18EE101A1A46204637
:103D500000F030FE08EE100A059B002B05DD314611
:103D60001A46204600F026FE06460B9B002B6ED01E
:103D700018EE100A314600F08DFE002867DA009B2D
:103D8000013B18EE101A00930A220023204600F08F
:103D900061FC089B08EE100A002B00F0B1810023A3
:103DA00039460A22204600F055FC029B002B0746AC
:103DB00000F38E80069B022B51DC89E0109BC3F13F
:103DC00036034BE7039B5E1E079BB342BFBF079BB7
:103DD0000796F21A0A9BB6BF9B189E1B0A93039B79
:103DE000B8BF0026002BB7BFDDE90323DDE90335AB
:103DF0009D1A002334E7079E049D089F3BE7079A1E
:103E000067E7069B012B18DCBAF1000F15D1CBF345
:103E1000130393B92BF000431B0D1B0583B1049BC7
:103E200001330493059B013305934FF001080A9B6E
:103E3000002B7FF46AAF01206FE74FF00008F6E730
:103E40009846F4E73FF47DAF18461C3072E7039BB9
:103E5000002B37DC069B022B34DD039B0293029B75
:103E60006BB931460522204600F0F4FB01460646B8
:103E700018EE100A00F00EFE00283FF7BBAD099BBC
:103E8000019DDB4300934FF000083146204600F0CF
:103E9000BFFB002F3FF4A4AEB8F1000F05D0B8452A
:103EA00003D04146204600F0B3FB3946204600F0DF
:103EB000AFFB95E600263746E1E70097374699E5E0
:103EC00000002440089B002B00F0CA80039B029353
:103ED000002D05DD39462A46204600F06BFD0746D9
:103EE000B8F1000F5BD07968204600F051FB054621
:103EF00028B9874B024640F2EA21FFF73BBB3A69FB
:103F00000232920007F10C010C3000F033FB012269
:103F10002946204600F04EFD019B03F10109DDE931
:103F20000123134405930AF00103B846049307469E
:103F3000314618EE100AFFF775FA4146029000F17B
:103F4000300A18EE100A00F0A5FD3A4603903146FB
:103F5000204600F0BBFDC26809F1FF3B054602BBED
:103F6000014618EE100A00F095FD0246294620464B
:103F7000079200F04DFBDDE9063243EA0201049BA3
:103F80000B434D460FD1BAF1390F2AD0039B002BBA
:103F900002DD029B03F1310A8BF800A075E7384679
:103FA000BAE70122E2E7039B002B04DB06990B43EF
:103FB00004990B4322D1002AEEDD18EE101A0122DB
:103FC000204600F0F7FC314608EE100A00F062FDD2
:103FD000002803DCE0D11AF0010FDDD0BAF1390F6F
:103FE000D7D139238BF800302B461D46013B15F8FD
:103FF000012C392A71D001321A7046E7002A07DDF8
:10400000BAF1390FEDD00AF101038BF800303CE72B
:10401000059B09F801AC994547D018EE101A00230A
:104020000A22204600F016FBB84508EE100A4FF0B1
:1040300000034FF00A024146204606D100F00AFB79
:104040008046074609F1010972E700F003FB394693
:10405000804600230A22204600F0FCFA0746F1E7DA
:10406000039B0293019D18EE100A3146FFF7DAF91F
:1040700000F1300A019B05F801ABEA1A029B93425A
:1040800009DD18EE101A00230A22204600F0E2FA99
:1040900008EE100AE7E7029B002BC8BF1D46019BF4
:1040A000D8BF01251D444FF0000818EE101A012258
:1040B000204600F07FFC314608EE100A00F0EAFCD2
:1040C000002891DC02D11AF0010F8DD12B461D463C
:1040D00013F8012D302AFAD0D7E6019A9A4284D1FA
:1040E000009B0133009331231370CEE6094BFFF799
:1040F00095BA219B002B7FF46EAA074BFFF78EBA6F
:10410000029B002BAEDC069B022B3FF7A8AEA9E773
:10411000CA58000804580008285800088A892DE960
:10412000F041054610070C4658D44B68002B05DCBF
:104130000B6C002B02DC0020BDE8F081E66A002E4B
:10414000F9D0002312F480522F682B6032D0606DBA
:10415000A3895A0705D56368C01A636B0BB1236C3A
:10416000C01A00230246E66A216A2846B047431C6B
:10417000A38906D129681D292CD82A4ACA40D60706
:1041800028D500226260D9042269226004D5421C2D
:1041900001D12B6803B96065616B2F600029CAD01B
:1041A00004F14403994202D0284600F08BFD002020
:1041B0006063C1E7216A01232846B047411CC7D18B
:1041C0002B68002BC4D01D2B01D0162B01D12F60E2
:1041D000B1E7A38943F04003A381ADE70F69002F46
:1041E000A9D093070E6808BF4B690F6018BF002362
:1041F000A6EB07088B60B8F1000F9CDD216AA66A68
:1042000043463A462846B047002806DCA38943F0D7
:104210004003A3814FF0FF308EE70744A8EB00086E
:10422000E9E700BF0100402038B50B6905460C46A0
:1042300013B90025284638BD18B183690BB900F0C1
:1042400087F8144B9C421BD16C68B4F90C30002BDE
:10425000EFD0626ED00704D4990502D4A06D00F0AF
:104260001AF928462146FFF759FF636EDA0705461B
:10427000E0D4A3899B05DDD4A06D00F00DF9D9E74A
:10428000054B9C4201D1AC68DFE7044B9C4208BF60
:10429000EC68DAE7FC5800081C590008DC580008F4
:1042A000002310B50446C0E90033C0E9043383603D
:1042B00081814366C2818361194608225C30FEF722
:1042C000D1FA054B6362054BA362054BE362054BD4
:1042D0002462236310BD00BF11540008335400084A
:1042E0006B5400088F540008014900F0AFB800BFBC
:1042F0002942000870B568224D1E55430E4605F14F
:10430000740100F04BFD044640B10021C0E90016E5
:104310000C30A06005F16802FEF7A4FA204670BDDB
:10432000014800F0B8B800BFC5020020014800F005
:10433000B3B800BFC5020020014800F0ACB800BF10
:10434000C6020020014800F0A7B800BFC602002046
:1043500010B50446FFF7F0FFA3691BB1BDE810409C
:10436000FFF7F0BFC4E912332365134B134A1B68F0
:10437000A262A34204BF0123A361204600F020F8FB
:104380006060204600F01CF8A060204600F018F89D
:104390000022E06004216068FFF782FFA06801222C
:1043A0000921FFF77DFFE06802221221FFF778FF65
:1043B0000123A361D2E700BFF0570008E9420008DB
:1043C000F8B50746FFF7ACFF1E4B1E68B36913B97B
:1043D0003046FFF7BDFF4836D6E90134013B03D52F
:1043E00033680BB33668F7E7B4F90C50D5B9164B00
:1043F000E36004F15800656600F04CF8FFF796FFA3
:10440000C4E90155C4E904552560A561082229467F
:1044100004F15C00FEF726FAC4E90D55C4E9125513
:104420002046F8BD6834D9E704213846FFF762FF1B
:10443000044630600028D5D1FFF778FF0C233B609D
:10444000EEE700BFF05700080100FFFF2DE9F84339
:104450000646884600F148040027D4E90195B9F1E1
:10446000010905D52468002CF7D13846BDE8F8834A
:10447000AB89012B07D9B5F90E30013303D029469A
:104480003046C04707436835E9E7000000487047F9
:10449000F801002070477047704770B50E46B1F9BB
:1044A0000E10002996B014461D4608DAB6F90C30F5
:1044B00000222A601A0610D44FF480630EE06A4688
:1044C00001F03CF80028F1DB019A02F47042A2F5F9
:1044D00000535A425A412A60EEE7402300202360ED
:1044E00016B070BD8B8973B59D0706460C4607D57F
:1044F00004F14703236023610123636102B070BDAF
:1045000001AB6A46FFF7C9FF00990546304600F047
:1045100045FC48B9B4F90C309A05EFD423F00303F5
:1045200043F00203A381E3E70D4BB362A38920604C
:1045300043F08003A381009B6361019B20615BB119
:10454000B4F90E10304601F00BF828B1A38923F01E
:10455000030343F00103A381A0890543A581CDE7AF
:10456000E9420008024B0146186800F017BC00BF82
:10457000A40000200A44914200F1FF3300D17047AB
:1045800010B511F8014B03F8014F9142F9D110BD5C
:1045900070B5466A04460D4676B91020FFF7E2FF73
:1045A0000246606220B9184B1848662100F086FF69
:1045B000C0E901660660C660666AF36883B1636A33
:1045C000DB6853F82500B8B9012101FA05F6721D20
:1045D0009200204600F060FB60B1C0E901560EE099
:1045E00021220421204600F057FB636AF060DB685B
:1045F000002BE4D1002070BD026843F82520002381
:10460000C0E90333F7E700BF355800083C590008FC
:1046100070B5466A05460C4676B91020FFF7A2FF32
:104620000246686220B9094B09488A2100F046FF1A
:10463000C0E901660660C6603CB16B6A6268DB680F
:1046400053F82210216043F8224070BD355800080D
:104650003C5900082DE9F0410D6907460C461E46FD
:1046600001F1140C0020DCF8003099B202FB01616A
:104670001E0C0B0C02FB063389B2013001EB034127
:1046800085424CF8041B4FEA1346ECDC0EB3A368DA
:10469000AB4219DC616838460131FFF779FF80468B
:1046A00028B902460C4B0D48B52100F007FF2269DE
:1046B000023204F10C0192000C30FFF75BFF21463F
:1046C0003846FFF7A5FF444604EB850301355E61DC
:1046D00025612046BDE8F081CA5800083C59000811
:1046E000030C1B04D3B90004102310F07F4F04BF48
:1046F0000002083310F0704F04BF0001043310F0C3
:10470000404F04BF80000233002805DB10F0804FCB
:1047100003F1010308BF2023184670470023E4E794
:10472000036813F0070201460BD0DA0723D4980779
:1047300049BF5B089B0801200B605CBF0B60022037
:10474000704798B2A8B91B0C1020DAB20AB9083029
:104750001B0A1A0704BF1B0904309A0704BF9B08F1
:104760000230DA0703D45B0800F1010005D00B60CA
:1047700070471046E9E7002070472020704700008E
:1047800010B50C460121FFF703FF024628B9054B7F
:1047900005484FF4A07100F091FE012344610361CC
:1047A00010BD00BFCA5800083C5900082DE9F04F61
:1047B00091460A69D9F810309A42B8BF0B460C46A8
:1047C000BCBF4C4699462769D9F810A0A368616818
:1047D00007EB0A06B34285B0B8BF0131FFF7D8FE38
:1047E00030B90246444B454840F25D1100F066FE88
:1047F00000F1140505EB86082B460022434521D322
:1048000004F1140303EB870709F1140303EB8A0295
:1048100002923A1B153A22F00302043204F1150108
:104820008F4238BF04220192029A03939A420CD815
:10483000002E03DD58F8043D002B5AD0066105B068
:10484000BDE8F08F43F8042BD8E7B3F800A0BAF125
:10485000000F24D004F1140EA9464FF0000C5EF8AE
:10486000042BD9F800101FFA82FB89B20AFB0B1146
:104870004FEA124BD9F8002061444FEA124C0AFB70
:104880000BC202EB114289B241EA0241774549F875
:10489000041B4FEA124CE2D8019A45F802C0039A71
:1048A000B2F802900433B9F1000F20D0296804F166
:1048B000140CAE464FF0000ABCF800B0BEF802205F
:1048C00009FB0B22924489B241EA0A414EF8041BCB
:1048D0005CF8042BBEF80010120C09FB021101EB6E
:1048E0001A4167454FEA114AE6D8019AA9500435A2
:1048F0009AE7013E9CE700BFCA5800083C590008EF
:104900002DE9F843154612F0030206460F4607D07C
:10491000254C013A002354F82220FFF79BFE07465E
:10492000AD103DD0746A7CB91020FFF71BFE024623
:10493000706228B91D4B1E484FF4D77100F0BEFDC0
:10494000C0E901440460C460D6F82480D8F8084067
:104950004CB940F271213046FFF712FF0023C8F82E
:104960000800044603604FF00009EB070AD53946FA
:1049700022463046FFF71AFF394680463046FFF799
:1049800047FE47466D100BD0206838B922462146B5
:104990003046FFF70BFF2060C0F800900446E4E7C4
:1049A0003846BDE8F88300BFB05A00083558000803
:1049B0003C5900082DE9F0470C464968236903EB90
:1049C0006218A368074691464FEA621A08F1010689
:1049D000B3420BDB3846FFF7DBFD054648B902461C
:1049E0002A4B2B4840F2D91100F068FD01315B00E1
:1049F000EEE7002300F1140100F1100218465345C0
:104A000037DB20692AEAEA7A04F1140319F01F0956
:104A100001EB8A0103EB80002FD0C9F1200E8A46FA
:104A20004FF0000C1A6802FA09F242EA0C024AF846
:104A3000042B53F8042B984222FA0EFCF2D8031BE5
:104A4000153B23F00303043304F11502904238BFF1
:104A5000042341F803C0BCF1000F01D008F10206A5
:104A6000013E38462E612146FFF7D2FD2846BDE8BB
:104A7000F08742F8040F0133C1E7043953F8042BDF
:104A800041F8042F9842F9D8EAE700BFCA58000855
:104A90003C59000830B502690C69121B0ED100F1B7
:104AA0001403143103EB840001EB840150F8045D1E
:104AB00051F8044DA54203D005D30122104630BD64
:104AC0008342F3D3FAE74FF0FF32F7E72DE9F84FCF
:104AD0000C460646114620469046FFF7DBFF051EB2
:104AE00010D129463046FFF753FD30B93A4B024604
:104AF00040F23221394800F0E1FC0123C0E90435DD
:104B0000BDE8F88FA4BF4346A0463046D8F804104D
:104B1000A6BF1C4600250125FFF73AFD20B92E4B04
:104B200002464FF41071E5E7D8F810702669C560A9
:104B300004F1140908F1140500F1140E05EB870CBB
:104B400009EB860608F11002F246002159F8043BF1
:104B500052F804BF1FFA83F811FA8BF11B0CA1EB7A
:104B60000808C3EB1B4303EB28431FFA88F819140A
:104B70004E4548EA03434AF8043BE7D8331B153B4C
:104B800023F0030304331534A64238BF04231D4425
:104B900073449E462E4666450ED30CF10302521B0B
:104BA00022F00302033DAC4538BF00221A4452F8FC
:104BB000043D7BB10761A3E756F8048B11FA88F234
:104BC000141404EB184492B242EA04424EF8042B47
:104BD0002114E0E7013FEAE7CA5800083C59000801
:104BE0002DE9F7438946012157EC106B9046FFF7FA
:104BF000CFFC044630B90246254B264840F20A3124
:104C000000F05CFCC7F30A55C7F3130335BB002E55
:104C1000019328D068460096FFF782FD009900B303
:104C2000019AC0F1200302FA03F30B43C24063610F
:104C30000192019BA361002B14BF02220122226179
:104C4000D5B1A5F233450544C9F80050C0F135008F
:104C5000C8F80000204603B0BDE8F08343F4801399
:104C6000D5E76161E5E701A8FFF75AFD019B6361A4
:104C7000012222612030E3E704EB8203A0F23240FC
:104C8000C9F800001869FFF72BFDC0EB4210DFE701
:104C9000CA5800083C59000837B5A1FB02244CB99A
:104CA0001146019200F07AF8019A054630B928467B
:104CB00003B030BD0C2202600025F8E72146FDF765
:104CC000D1FDF4E737B5002944D051F8043C0190F8
:104CD000002BA1F10404B8BFE41800F08FFC1E4AB9
:104CE0000198136833B96360146003B0BDE83040C5
:104CF00000F08ABCA34208D9256861198B4201BF24
:104D000019685B6849192160EDE71A465B680BB1C9
:104D1000A342FAD911685518A5420BD12468214441
:104D20005418A3421160E0D11C685B6853602144B1
:104D30001160DAE702D90C230360D6E72568611910
:104D40008B4204BF19685B68636004BF4919216026
:104D50005460CAE703B030BDC802002070B50E4EE3
:104D60000C463168054611B900F042FB306021461F
:104D7000284600F03DFB431C0AD0C41C24F0030469
:104D8000A04207D0211A284600F032FB013001D1A1
:104D90004FF0FF34204670BDCC0200202DE9F041D9
:104DA000CD1C25F0030508350C2D38BF0C25002D32
:104DB000074601DBA94205D90C233B60002630469B
:104DC000BDE8F0812E4E00F019FC33681C4634BB60
:104DD00029463846FFF7C2FF431C04464DD13468CC
:104DE0002646002E40D123683146384604EB03089E
:104DF00000F0FEFA80453AD1216803356D1A25F09E
:104E0000030508350C2D38BF0C2529463846FFF719
:104E1000A5FF01302BD023682B4423600EE02268CD
:104E2000521B1ED40B2A16D96119A342256018BF44
:104E30005960636808BF316062514B60384604F1C5
:104E40000B0600F0E1FB26F00706231DF21AB6D090
:104E50009B1BA350B3E76268A3420CBF32605A6049
:104E6000ECE723466468B2E734467668B9E70C237A
:104E70003B60384600F0C8FBA1E72560DEE700BFD5
:104E8000C80200202DE9F0478E689E4282460C46FB
:104E900090461F4638D88A8912F4906F32D0256820
:104EA0000969A5EB0109656905EB450505EBD575B4
:104EB00001334B446D109D4238BF1D46530531D51B
:104EC0002946FFF76BFF064650B90C23CAF800309D
:104ED000A38943F04003A3814FF0FF30BDE8F08782
:104EE00021694A46FFF746FBA38923F4906343F008
:104EF0008003A381266165614E44A5EB0905266008
:104F0000A5603E46BE4200D93E4620683246414634
:104F100000F05AFBA3689B1BA36023683344236003
:104F20000020DBE72A4600F075FB06460028E1D1A9
:104F300021695046FFF7C6FEC7E700002DE9F04F94
:104F400098468B891B069DB007460D4614460ED524
:104F50000B6963B94021FFF721FF2860286120B960
:104F60000C233B604FF0FF30D1E040236B61002306
:104F7000099320238DF82930CDF80C803023DFF8F9
:104F8000A8818DF82A304FF0010923469A4613F87C
:104F9000012B0AB1252AF9D1BAEB040B0BD05B46E1
:104FA000224629463846FFF76DFF013000F0AA80FF
:104FB000099A5A4409929AF80030002B00F0A28016
:104FC00000234FF0FF32CDE905230AF1010A0493D3
:104FD00007938DF853301A935446052214F8011B99
:104FE0005148FBF7BDFA049AD8B9D00644BF202334
:104FF0008DF85330110744BF2B238DF853309AF8A6
:1050000000302A2B15D0079A544600204FF00A0C86
:10501000214611F8013B303B092B4ED9B0B1079224
:1050200014E0A0EB080309FA03F313430493A24628
:10503000D2E7039B191D1B680391002BBBBF5B428A
:1050400042F0020207930793B8BF049223782E2BF5
:105050000CD163782A2B35D1039B1A1D1B68039250
:10506000002BB8BF4FF0FF3302340593DFF8C8A020
:10507000217803225046FBF773FA40B14023A0EB9E
:105080000A0003FA00F0049B03430134049314F86C
:10509000011B26488DF828100622FBF761FA00282C
:1050A00038D0234B1BBB039B073323F00703083384
:1050B0000393099B3344099367E70CFB02320C46C8
:1050C0000120A5E700230134059319464FF00A0C8F
:1050D000204610F8012B303A092A03D9002BC5D0FD
:1050E0000591C3E70CFB012104460123F0E703AB64
:1050F00000932A460F4B04A93846FDF75BFC421C7F
:105100000646D6D1AB895B063FF52CAF09981DB09A
:10511000BDE8F08F03AB00932A46064B04A938463E
:10512000FDF7ECFEEBE700BFBC5A0008C65A0008CA
:10513000B5290008854E0008C25A00089368013B53
:10514000002B10B4936008DA9469A34201DB0A29AA
:1051500003D15DF8044BFEF7A5B81368581C106026
:10516000197008465DF8044B7047F8B506460F46BF
:105170001446D518AC4201D1002007E014F8011BF9
:105180003A463046FFF7DAFF431CF3D1F8BD000082
:105190002DE9F04F0D469DB014469846064618B1CD
:1051A00083690BB9FFF7D4F8894B9D421BD1756811
:1051B0006B6ED90705D4AB899A0502D4A86DFFF7A9
:1051C0006AF9AB891B0701D52B69EBB92946304633
:1051D000FEF7BAF8C0B16B6EDC070ED54FF0FF30AA
:1051E0001DB0BDE8F08F7B4B9D4201D1B568DFE774
:1051F000794B9D4208BFF568DAE7AB899805EDD495
:10520000A86DFFF749F9E9E70023099320238DF8FA
:105210002930CDF80C803023DFF8C0818DF82A309A
:105220004FF0010923469A4613F8012B0AB1252AAB
:10523000F9D1BAEB040B0BD05B4622462946304627
:10524000FFF793FF013000F0AA80099A5A440992AF
:105250009AF80030002B00F0A28000234FF0FF32BC
:10526000CDE905230AF1010A049307938DF8533021
:105270001A935446052214F8011B5848FBF770F99D
:10528000049AD8B9D10644BF20238DF853301307B0
:1052900044BF2B238DF853309AF800302A2B15D0B9
:1052A000079A544600204FF00A0C214611F8013BA2
:1052B000303B092B4ED9B0B1079214E0A0EB0803A4
:1052C00009FA03F313430493A246D2E7039B191D83
:1052D0001B680391002BBBBF5B4242F002020793A5
:1052E0000793B8BF049223782E2B0CD163782A2B16
:1052F00035D1039B1A1D1B680392002BB8BF4FF0DA
:10530000FF3302340593DFF8E4A0217803225046EE
:10531000FBF726F940B14023A0EB0A0003FA00F0A6
:10532000049B03430134049314F8011B2C488DF8AB
:1053300028100622FBF714F900283FD0294B1BBB8D
:10534000039B073323F0070308330393099B3B4474
:10535000099367E70CFB02320C460120A5E7002306
:105360000134059319464FF00A0C204610F8012B22
:10537000303A092A03D9002BC5D00591C3E70CFBAD
:10538000012104460123F0E703AB00932A46164BA4
:1053900004A93046FDF70EFB0746781CD6D16B6E8C
:1053A000D90705D4AB899A0502D4A86DFFF774F824
:1053B000AB895B063FF512AF099811E703AB009389
:1053C0002A46094B04A93046FDF798FDE4E700BFE3
:1053D000FC5800081C590008DC580008BC5A00089A
:1053E000C65A0008B52900086B510008C25A0008C7
:1053F00038B5064D0023044608462B60FCF7F2FC46
:10540000431C02D12B6803B1236038BDD0020020B9
:1054100010B50C46B1F90E1000F02CF90028ABBF06
:10542000636DA3891B1823F48053ACBF6365A3810C
:1054300010BD2DE9F0411F468B89DB0505460C4662
:10544000164605D5B1F90E100223002200F098F897
:10545000A389B4F90E1023F48053A38132463B464E
:105460002846BDE8F04100F017B810B50C46B1F978
:105470000E1000F085F8431CA38915BF606523F466
:10548000805343F48053A38118BFA38110BDB1F9A9
:105490000E1000F031B8000038B5074D044608463C
:1054A000114600222A601A46FCF74BFC431C02D12D
:1054B0002B6803B1236038BDD00200201FB514460D
:1054C0001A46094B1B680546D8684CB1074B00913A
:1054D000CDE9013406492B4600F01EF800F0E9F84A
:1054E000044B1C46F3E700BFA4000020CD5A00087F
:1054F000DA5A0008085B000838B5064D0023044658
:1055000008462B60FCF739FC431C02D12B6803B121
:10551000236038BDD00200200EB403B5014603ABB2
:10552000054853F8042B00680193FFF731FE02B0E1
:105530005DF804EB03B07047A400002038B5074DB8
:1055400000230446084611462B60FCF722FC431C4E
:1055500002D12B6803B1236038BD00BFD002002008
:1055600038B5064D0023044608462B60FCF721FCA5
:10557000431C02D12B6803B1236038BDD002002048
:1055800038B5074D04460846114600222A601A46DF
:10559000FCF71AFC431C02D12B6803B1236038BD11
:1055A000D002002082B001B901A942B14BB11378F9
:1055B0000B601278101E18BF012002B07047104611
:1055C000FBE76FF00100F8E7884210B501EB020439
:1055D00002D98442234607D8431EA14208D011F8BD
:1055E000012B03F8012FF8E7024401468A4200D15B
:1055F00010BD13F8014D02F8014DF7E70148FEF721
:105600004ABF00BFC40200200148FEF745BF00BFEB
:10561000C40200202DE9F041804614460E4621B90F
:10562000BDE8F0411146FFF7B9BB2AB9FFF74AFBC5
:1056300025462846BDE8F08100F042F8844207463E
:1056400002D8B4EB500F12D821464046FFF7A6FB14
:1056500005460028EDD0BC422246314628BF3A46D6
:10566000FEF788FF31464046FFF72CFBE1E7354661
:10567000DFE7000038B5074D044608461146002212
:105680002A601A46FCF740FB431C02D12B6803B189
:10569000236038BDD002002049B1FF2A85BF8A238C
:1056A00003600A704FF0FF3098BF01207047084632
:1056B000704708B5062000F033F80120FCF71AFB0C
:1056C00051F8043C181F002BBCBF0B58C018704782
:1056D0001F2938B504460D4604D9162303604FF040
:1056E000FF3038BD426C12B152F821304BB9204620
:1056F00000F030F82A4601462046BDE8384000F068
:1057000017B8012B0AD0591C03D1162303600120BE
:10571000E7E7002442F82540284698470020E0E7C4
:10572000024B01461868FFF7D3BF00BFA40000205A
:1057300038B5074D00230446084611462B60FCF798
:10574000C9FA431C02D12B6803B1236038BD00BFE6
:10575000D0020020FCF7B6BAF8B500BFF8BC08BC10
:105760009E467047F8B500BFF8BC08BC9E4670471F
:1057700048454C4C4F2C20574F524C4421200D0093
:1057800048656C6C6F2C20776F726C642100000090
:1057900054656D7065726174757265206E6F773ACD
:1057A00020252E3266200D0A0000000000000000B7
:1057B00000000000010203040607080900000000C1
:1057C00001020304000000000102030402040608B1
:1057D000020C081000000000000000000102030499
:1057E0000607080954656D703A20252E32662000A0
:1057F000A8000020494E4600696E66004E414E00EA
:105800006E616E003000303132333435363738391E
:10581000414243444546003031323334353637381F
:105820003961626364656600496E66696E697479A0
:10583000004E614E005245454E54206D616C6C6FB8
:105840006320737563636565646564002F6D6E74B2
:105850002F776F726B73706163652F776F726B73E5
:10586000706163652F4743432D31302D706970653A
:105870006C696E652F6A656E6B696E732D47434365
:105880002D31302D706970656C696E652D3333383C
:105890005F32303231313031385F31363334353187
:1058A000363230332F7372632F6E65776C69622FD7
:1058B0006E65776C69622F6C6962632F7374646CB8
:1058C00069622F64746F612E630042616C6C6F6358
:1058D0002073756363656564656400000000000003
:1058E00000000000000000000000000000000000B8
:1058F00000000000000000000000000000000000A8
:105900000000000000000000000000000000000097
:105910000000000000000000000000000000000087
:105920000000000000000000000000000000000077
:105930000000000000000000000000002F6D6E74E9
:105940002F776F726B73706163652F776F726B73F4
:10595000706163652F4743432D31302D7069706549
:105960006C696E652F6A656E6B696E732D47434374
:105970002D31302D706970656C696E652D3333384B
:105980005F32303231313031385F31363334353196
:10599000363230332F7372632F6E65776C69622FE6
:1059A0006E65776C69622F6C6962632F7374646CC7
:1059B00069622F6D707265632E6300000000000045
:1059C0000080E03779C34143176E05B5B5B89346FB
:1059D000F5F93FE9034F384D321D30F94877825AC7
:1059E0003CBF737FDD4F1575000000000000F03FE5
:1059F00000000000000024400000000000005940AA
:105A00000000000000408F40000000000088C340FC
:105A100000000000006AF8400000000080842E4171
:105A200000000000D01263410000000084D79741BD
:105A30000000000065CDCD41000000205FA00242C3
:105A4000000000E876483742000000A2941A6D4238
:105A5000000040E59C30A2420000901EC4BCD6422B
:105A600000003426F56B0C430080E03779C34143D6
:105A700000A0D8855734764300C84E676DC1AB434C
:105A8000003D9160E458E143408CB5781DAF15446A
:105A900050EFE2D6E41A4B4492D54D06CFF0804445
:105AA000F64AE1C7022DB544B49DD9794378EA445A
:105AB00005000000190000007D000000232D302BA0
:105AC0002000686C4C00656667454647002C2066E0
:105AD000756E6374696F6E3A2000617373657274DA
