:020000040800F2
:1000000000800120810700083F0200084D0200081F
:1000100053020008590200085F02000800000000B7
:100020000000000000000000000000006502000861
:100030007302000800000000810200088F0200081F
:10004000C9070008C9070008C9070008C907000850
:10005000C9070008C9070008C9070008C907000840
:10006000C9070008C9070008C9070008C907000830
:10007000C9070008C9070008C9070008C907000820
:10008000C9070008C9070008C9070008C907000810
:10009000C9070008C9070008C9070008C907000800
:1000A000C9070008C9070008C9070008C9070008F0
:1000B000C9070008C9070008C9070008C9070008E0
:1000C000C9070008C9070008C9070008C9070008D0
:1000D000C9070008C9070008C9070008C9070008C0
:1000E000C9070008C9070008C9070008C9070008B0
:1000F000C9070008C9070008C9070008C9070008A0
:10010000C9070008C9070008C9070008C90700088F
:10011000C9070008C9070008C9070008C90700087F
:10012000C9070008C9070008C9070008C90700086F
:10013000C9070008C9070008C9070008C90700085F
:1001400000000000000000000000000000000000AF
:10015000C9070008C9070008C9070008C90700083F
:10016000C9070008C9070008C9070008C90700082F
:10017000C9070008C9070008C9070008C90700081F
:04018000C9070008A3
:1001840010B5054C237833B9044B13B10448AFF3CD
:1001940000800123237010BD28000020000000000F
:1001A400440D000808B5034B1BB103490348AFF3E2
:1001B400008008BD000000002C000020440D000851
:1001C40080B500AF00F0AAF80121012000F068F921
:1001D40000BF00F001F90346002BFAD001223B21B5
:1001E400022000F0F3F9002000F07AFA0121022045
:1001F40000F056F900BF192000F0C6F80346012BA1
:10020400F9D1002000F0A0F9042000F0C9F904207D
:1002140000F0B0F9012000F047FA022000F020FAC3
:1002240000BF00F033FA0346022BFAD1002000F09D
:100234003BFA00F00DFB00BF80BD80B400AF00BFEF
:10024400BD465DF8047B704780B400AFFEE780B420
:1002540000AFFEE780B400AFFEE780B400AFFEE776
:1002640080B400AF00BFBD465DF8047B704780B426
:1002740000AF00BFBD465DF8047B704780B400AF9B
:1002840000BFBD465DF8047B704780B400AF00BF7B
:10029400BD465DF8047B704780B500AFFFF790FF63
:1002A40000F07EFB002000F091FC1B4B1B789BB2FE
:1002B4001A46920013441A4691001A460B461344F8
:1002C4009B009BB2184600F0CBFC012000F07EFCA2
:1002D400114B1B789BB21A46920013441A469100A4
:1002E4001A460B4613449B009BB2184600F0B8FC18
:1002F400022000F06BFC084B1B789BB21A4692005C
:1003040013441A4691001A460B4613449B009BB2B1
:10031400184600F0A5FCC5E70000002080B400AF3B
:10032400184A136843F00103136000BF154B1B68A0
:10033400C3F34003DBB2012BF8D1124A53686FF3C5
:100344000103536000BF0F4B5B68C3F38103DBB24F
:10035400002BF8D10B4B00225A600A4B1B68094A48
:1003640023F0867323F480331360064B00221A6350
:10037400044B4FF41F029A6000BFBD465DF8047B36
:10038400704700BF0010024080B485B000AF7860B1
:100394000023FB737B681B0C03F1804303F50433D8
:1003A4001A687B6803F01F03012101FA03F31A4062
:1003B4007B6803F01F03012101FA03F39A4202D080
:1003C4000023FB7301E00123FB73FB7B1846143706
:1003D400BD465DF8047B704780B582B000AF002352
:1003E4007B600023FB7002E07B6801337B6011209B
:1003F400FFF7CAFF0346012B03D07B68B3F5405FC8
:10040400F2D31120FFF7C0FF0346012B02D00023D3
:10041400FB7001E00123FB70FB7818460837BD46EA
:1004240080BD80B483B000AF78600B46FB70FB786E
:10043400012B16D17B681B0C03F1804303F50433B5
:1004440019687B6803F01F0301229A407B681B0C28
:1004540003F1804303F50433184641EA02030360C1
:1004640017E07B681B0C03F1804303F50433196820
:100474007B6803F01F03012202FA03F3DA437B686B
:100484001B0C03F1804303F50433184601EA02030D
:10049400036000BF0C37BD465DF8047B7047000065
:1004A40080B483B000AF03460A46FB711346BB71A8
:1004B400FB79042B3ED801A252F823F0D50400089E
:1004C400E9040008FD0400081105000825050008DA
:1004D4001C4ABB7903F00103D9B2136861F300032A
:1004E400136028E0174ABB7903F00103D9B21368FB
:1004F40061F3104313601EE0124ABB7903F0010359
:10050400D9B2136861F31863136014E00D4ABB7920
:1005140003F00103D9B2136A61F3000313620AE022
:10052400084ABB7903F00103D9B2536A61F30003AB
:10053400536200E000BF00BF0C37BD465DF8047B8A
:10054400704700BF0010024080B483B000AF034680
:10055400FB71074AFB7903F00F03D9B2536861F3C7
:100564000713536000BF0C37BD465DF8047B70472A
:100574000010024080B483B000AF0346FB71074A09
:10058400FB7903F00703D9B2536861F30A2353607C
:1005940000BF0C37BD465DF8047B70470010024075
:1005A40080B483B000AF0346FB71074AFB7903F0C4
:1005B4000703D9B2536861F3CD23536000BF0C37EE
:1005C400BD465DF8047B70470010024080B483B0E0
:1005D40000AF0346FB710B46BB7113467B71FB797D
:1005E400002B05D11D4A53686FF31043536012E08A
:1005F4001A4A536843F480335360FB79012B05D1C5
:10060400164A53686FF35143536004E0134A536826
:1006140043F400335360114ABB7903F00F03D9B29A
:10062400536861F395435360BB791B110B4A03F084
:100634000303D9B2536861F35E735360074A7B794D
:1006440003F00103D9B2536861F3DF73536000BF51
:100654000C37BD465DF8047B704700BF00100240B4
:1006640080B483B000AF0346FB71074AFB7903F003
:100674000303D9B2536861F30103536000BF0C371D
:10068400BD465DF8047B70470010024080B400AFA3
:10069400044B5B68C3F38103DBB21846BD465DF8C7
:1006A400047B70470010024080B483B000AF03465F
:1006B400FB71FB79012B05D1084A536D43F03003DC
:1006C400536504E0054A536D6FF30513536500BF8A
:1006D4000C37BD465DF8047B704700BF0010024034
:1006E40080B483B000AF0346FB71074AFB7903F083
:1006F4000303D9B2536D61F30D33536500BF0C3757
:10070400BD465DF8047B70470010024080B483B09E
:1007140000AF78607B684FF6FF721A607B68002236
:100724009A717B6800221A717B6804225A717B6873
:100734000122DA7100BF0C37BD465DF8047B7047B7
:1007440080B483B000AF0346FB71FB79042B06D160
:10075400094B1B68084A43F00403136005E0064B89
:100764001B68054A23F00403136000BF0C37BD4621
:100774005DF8047B704700BF10E000E0002103E057
:100784000B4B5B58435004310A480B4B42189A42B6
:10079400F6D30A4A02E0002342F8043B084B9A428B
:1007A400F9D300F011F800F0A7FAFFF775FD7047D0
:1007B400740D0008000000202800002028000020FC
:1007C4004C000020FEE7000080B400AF1E4BD3F8BD
:1007D40088301D4A43F47003C2F888301B4A1368FA
:1007E40043F00103136000BF184B1B68C3F34003BD
:1007F400DBB2012BF8D1154A53686FF30103536040
:1008040000BF124B5B68C3F38103DBB2002BF8D14A
:100814000E4B00225A600D4B1B680C4A23F0867362
:1008240023F480331360094B00221A63074B4FF4FF
:100834001F029A60044B4FF000629A6000BFBD46ED
:100844005DF8047B704700BF00ED00E0001002403B
:1008540080B588B000AF0023BB610023FB61002397
:100864007B6100233B610023FB600023BB60FFF737
:100874000DFF0346FB71FB79022B20D0022B69DCB0
:10088400002B02D0012B16D064E03F4B5B6DC3F309
:100894004023DBB2002B0AD03B4B1B6BC3F34063FA
:1008A400DBB2002B03D0394B394A1A6056E0374B80
:1008B400384A1A6052E0354B364A1A604EE0324BE1
:1008C4005B68C3F30043DBB23B612F4B5B68C3F34C
:1008D4008343DBB2FB612C4B5B68C3F34173DBB234
:1008E4007B617B69002B02D1FB690F2B06D17B69ED
:1008F4001A01FB6913440133FB6102E0FB69023313
:10090400FB613B69002B06D1FB69234A02FB03F31D
:100914001E4A136022E01C4B5B68C3F34043DBB206
:10092400002B10D0184B5B6DC3F30133DBB2BB61FA
:10093400BB690233174AB2FBF3F3FA6902FB03F310
:10094400124A13600AE0FB69124A02FB03F30F4ADE
:10095400136003E00D4B0F4A1A6000BF0A4B5B683B
:10096400C3F30313DBB2FB600C4AFB6813441B782C
:10097400BB60064B1A68BB6822FA03F3034A136090
:1009840000BF2037BD4680BD001002400400002097
:10099400006CDC0200127A0000093D005C0D0008C6
:1009A40080B500AF00F03CF9002000F011F8012000
:1009B40000F00EF8022000F00BF8002000F0E2F83E
:1009C400012000F0DFF8022000F0DCF800BF80BD59
:1009D40080B586B000AF0346FB71FB79114A52F82B
:1009E400233001211846FFF71CFD07F10C031846BC
:1009F400FFF78CFE0C4B7B610123FB7400233B74DB
:100A04001023BB74FB79094A32F81330FB600423CA
:100A14007B7407F10C03184600F00AF800BF18377E
:100A2400BD4680BD1C0000200014014014000020BD
:100A340080B485B000AF78607B681B683B817B68BD
:100A44009B79032B02D100237B8132E07B689B7965
:100A5400002B17D17B685B799BB203F00F037B817A
:100A64007B685B79182B04D17B689B683A891A618F
:100A74001FE07B685B79282B1BD17B689B683A89D4
:100A84005A6116E07B689B791BB203F008031AB223
:100A94007B681B791BB203F004031BB213431AB225
:100AA4007B68DB791BB203F003031BB213431BB255
:100AB4007B813B89DBB2002B2BD00023FB6025E03C
:100AC4003A89FB6842FA03F303F00103002B1AD0BE
:100AD4007B689B681A68FB689B000F2101FA03F38B
:100AE400DB4319467B689B680A401A607B689B68F5
:100AF4001A687989FB689B0001FA03F319467B683D
:100B04009B680A431A60FB680133FB60FB68072B90
:100B1400D6D93B89FF2B2ED93B891B0A3B81002365
:100B2400FB6025E03A89FB6842FA03F303F0010312
:100B3400002B1AD07B689B685A68FB689B000F21C6
:100B440001FA03F3DB4319467B689B680A405A6049
:100B54007B689B685A687989FB689B0001FA03F3F8
:100B640019467B689B680A435A60FB680133FB6043
:100B7400FB68072BD6D900BF1437BD465DF8047B4C
:100B84007047000080B483B000AF0346FB71FB796B
:100B9400022B10D8FB790B4A32F81330002B0BD000
:100BA400FB79084A32F81310FB79074A52F82330CC
:100BB4000A461A6100E000BF0C37BD465DF8047BAD
:100BC400704700BF140000200800002080B483B0E8
:100BD40000AF0346FB71FB79022B16D8FB790E4A52
:100BE40032F81330002B11D0FB790C4A52F8233021
:100BF400DA68FB79084931F813301846FB7907495C
:100C040051F823304240DA6000E000BF0C37BD46A3
:100C14005DF8047B704700BF14000020080000202A
:100C240080B500AF0420FFF78BFD094B1B68094A10
:100C3400A2FB03239B0C084A1360074B1B684FF469
:100C44007A7202FB03F3054A136000BF80BD00BF44
:100C54000400002083DE1B434400002048000020E1
:100C640080B485B000AF0346FB800023FB6035E011
:100C7400FB88322B0AD91E4B1B681E4A322101FB0A
:100C840003F35360FB88323BFB8008E0FB88184A7F
:100C94001268184902FB03F34B600023FB80154BD9
:100CA40000229A60134B1B68124A43F0010313603D
:100CB400104B1B68FB60FB6803F00103002B04D09E
:100CC400FB6803F48033002BF2D00A4B1B68094AFB
:100CD40023F001031360074B00229A60FB88002B6A
:100CE400C6D100BF00BF1437BD465DF8047B704712
:100CF4004800002010E000E070B50D4D0D4C641B61
:100D0400A4100026A64209D10B4D0C4C00F018F893
:100D1400641BA4100026A64205D170BD55F8043BFF
:100D240098470136EEE755F8043B98470136F2E759
:100D34006C0D00086C0D00086C0D0008700D0008A7
:100D4400F8B500BFF8BC08BC9E467047F8B500BFB4
:080D5400F8BC08BC9E46704784
:100D5C00000000000000000001020304060708095F
:040D6C00A9010008D1
:040D700085010008F1
:100D74000100000000127A00001401400014014038
:100D8400001401400020004000800000050018000D
:080D940005001800050018001D
:040000050800078167
:00000001FF
