:020000040800F2
:1000000000800120F10600083F0200084D020008B0
:1000100053020008590200085F02000800000000B7
:100020000000000000000000000000006502000861
:100030007302000800000000810200088F0200081F
:100040003907000839070008390700083907000890
:100050003907000839070008390700083907000880
:100060003907000839070008390700083907000870
:100070003907000839070008390700083907000860
:100080003907000839070008390700083907000850
:100090003907000839070008390700083907000840
:1000A0003907000839070008390700083907000830
:1000B0003907000839070008390700083907000820
:1000C0003907000839070008390700083907000810
:1000D0003907000839070008390700083907000800
:1000E00039070008390700083907000839070008F0
:1000F00039070008390700083907000839070008E0
:1001000039070008390700083907000839070008CF
:1001100039070008390700083907000839070008BF
:1001200039070008390700083907000839070008AF
:10013000390700083907000839070008390700089F
:1001400000000000000000000000000000000000AF
:10015000390700083907000839070008390700087F
:10016000390700083907000839070008390700086F
:10017000390700083907000839070008390700085F
:040180003907000833
:1001840010B5054C237833B9044B13B10448AFF3CD
:1001940000800123237010BD340000200000000003
:1001A400D40C000808B5034B1BB103490348AFF353
:1001B400008008BD0000000038000020D40C0008B6
:1001C40080B500AF00F07CF80121012000F03AF97D
:1001D40000BF00F0D3F80346002BFAD001223B21E4
:1001E400022000F0C5F9002000F04CFA01210220A1
:1001F40000F028F900BF192000F098F80346012BFD
:10020400F9D1002000F072F9042000F09BF90420D9
:1002140000F082F9012000F019FA022000F0F2F94E
:1002240000BF00F005FA0346022BFAD1002000F0CB
:100234000DFA00F0C5FA00BF80BD80B400AF00BF66
:10024400BD465DF8047B704780B400AFFEE780B420
:1002540000AFFEE780B400AFFEE780B400AFFEE776
:1002640080B400AF00BFBD465DF8047B704780B426
:1002740000AF00BFBD465DF8047B704780B400AF9B
:1002840000BFBD465DF8047B704780B400AF00BF7B
:10029400BD465DF8047B704780B500AFFFF790FF63
:1002A40000F0B6FC002000F0DDFC012000F0DAFCD8
:1002B400022000F0D7FC4FF4FA7000F05DFCF1E787
:1002C40080B400AF184A136843F00103136000BF01
:1002D400154B1B68C3F34003DBB2012BF8D1124A60
:1002E40053686FF30103536000BF0F4B5B68C3F3A4
:1002F4008103DBB2002BF8D10B4B00225A600A4B6E
:100304001B68094A23F0867323F480331360064B79
:1003140000221A63044B4FF41F029A6000BFBD46CB
:100324005DF8047B704700BF0010024080B485B0C4
:1003340000AF78600023FB737B681B0C03F18043E0
:1003440003F504331A687B6803F01F03012101FAE3
:1003540003F31A407B6803F01F03012101FA03F33E
:100364009A4202D00023FB7301E00123FB73FB7B61
:1003740018461437BD465DF8047B704780B582B0DB
:1003840000AF00237B600023FB7002E07B68013335
:100394007B601120FFF7CAFF0346012B03D07B6863
:1003A400B3F5405FF2D31120FFF7C0FF0346012BE2
:1003B40002D00023FB7001E00123FB70FB78184698
:1003C4000837BD4680BD80B483B000AF78600B466B
:1003D400FB70FB78012B16D17B681B0C03F1804367
:1003E40003F5043319687B6803F01F0301229A4064
:1003F4007B681B0C03F1804303F50433184641EA80
:100404000203036017E07B681B0C03F1804303F5D0
:10041400043319687B6803F01F03012202FA03F313
:10042400DA437B681B0C03F1804303F5043318465D
:1004340001EA0203036000BF0C37BD465DF8047B8C
:100444007047000080B483B000AF03460A46FB71D6
:100454001346BB71FB79042B3ED801A252F823F05A
:10046400790400088D040008A1040008B5040008FC
:10047400C90400081C4ABB7903F00103D9B213680C
:1004840061F30003136028E0174ABB7903F001030A
:10049400D9B2136861F3104313601EE0124ABB79AA
:1004A40003F00103D9B2136861F31863136014E015
:1004B4000D4ABB7903F00103D9B2136A61F3000357
:1004C40013620AE0084ABB7903F00103D9B2536A04
:1004D40061F30003536200E000BF00BF0C37BD4668
:1004E4005DF8047B704700BF0010024080B483B005
:1004F40000AF0346FB71074AFB7903F00F03D9B23F
:10050400536861F30713536000BF0C37BD465DF8B1
:10051400047B70470010024080B483B000AF0346F0
:10052400FB71074AFB7903F00703D9B2536861F3FF
:100534000A23536000BF0C37BD465DF8047B704747
:100544000010024080B483B000AF0346FB71074A39
:10055400FB7903F00703D9B2536861F3CD235360E9
:1005640000BF0C37BD465DF8047B704700100240A5
:1005740080B483B000AF0346FB710B46BB711346D6
:100584007B71FB79002B05D11D4A53686FF310432F
:10059400536012E01A4A536843F480335360FB7982
:1005A400012B05D1164A53686FF35143536004E09D
:1005B400134A536843F400335360114ABB7903F080
:1005C4000F03D9B2536861F395435360BB791B1190
:1005D4000B4A03F00303D9B2536861F35E735360AB
:1005E400074A7B7903F00103D9B2536861F3DF73DF
:1005F400536000BF0C37BD465DF8047B704700BFF5
:100604000010024080B483B000AF0346FB71074A78
:10061400FB7903F00303D9B2536861F30103536018
:1006240000BF0C37BD465DF8047B704700100240E4
:1006340080B400AF044B5B68C3F38103DBB218469C
:10064400BD465DF8047B70470010024080B483B05F
:1006540000AF0346FB71FB79012B05D1084A536DAA
:1006640043F03003536504E0054A536D6FF30513FB
:10067400536500BF0C37BD465DF8047B704700BF6F
:100684000010024080B483B000AF0346FB71074AF8
:10069400FB7903F00303D9B2536D61F30D33536552
:1006A40000BF0C37BD465DF8047B70470010024064
:1006B40080B483B000AF0346FB71FB79042B06D1F1
:1006C400094B1B68084A43F00403136005E0064B1A
:1006D4001B68054A23F00403136000BF0C37BD46B2
:1006E4005DF8047B704700BF10E000E0002103E0E8
:1006F4000B4B5B58435004310A480B4B42189A4247
:10070400F6D30A4A02E0002342F8043B084B9A421B
:10071400F9D300F011F800F0B7FAFFF7BDFD704708
:10072400040D0008000000203400002034000020E4
:1007340058000020FEE7000080B400AF1E4BD3F841
:1007440088301D4A43F47003C2F888301B4A13688A
:1007540043F00103136000BF184B1B68C3F340034D
:10076400DBB2012BF8D1154A53686FF301035360D0
:1007740000BF124B5B68C3F38103DBB2002BF8D1DB
:100784000E4B00225A600D4B1B680C4A23F08673F3
:1007940023F480331360094B00221A63074B4FF490
:1007A4001F029A60044B4FF000629A6000BFBD467E
:1007B4005DF8047B704700BF00ED00E000100240CC
:1007C40080B588B000AF0023BB610023FB61002328
:1007D4007B6100233B610023FB600023BB60FFF7C8
:1007E40027FF0346FB71FB79022B20D0022B69DC27
:1007F400002B02D0012B16D064E03F4B5B6DC3F39A
:100804004023DBB2002B0AD03B4B1B6BC3F340638A
:10081400DBB2002B03D0394B394A1A6056E0374B10
:10082400384A1A6052E0354B364A1A604EE0324B71
:100834005B68C3F30043DBB23B612F4B5B68C3F3DC
:100844008343DBB2FB612C4B5B68C3F34173DBB2C4
:100854007B617B69002B02D1FB690F2B06D17B697D
:100864001A01FB6913440133FB6102E0FB690233A3
:10087400FB613B69002B06D1FB69234A02FB03F3AE
:100884001E4A136022E01C4B5B68C3F34043DBB297
:10089400002B10D0184B5B6DC3F30133DBB2BB618B
:1008A400BB690233174AB2FBF3F3FA6902FB03F3A1
:1008B400124A13600AE0FB69124A02FB03F30F4A6F
:1008C400136003E00D4B0F4A1A6000BF0A4B5B68CC
:1008D400C3F30313DBB2FB600C4AFB6813441B78BD
:1008E400BB60064B1A68BB6822FA03F3034A136021
:1008F40000BF2037BD4680BD00100240000000202C
:10090400006CDC0200127A0000093D00EC0C0008C7
:1009140080B483B000AF78607B689B68D9687B68DB
:100924001A687B689B684A40DA6000BF0C37BD4692
:100934005DF8047B704780B483B000AF78600B46E9
:10094400FB70FB78002B05D07B689B687A68126883
:100954001A6104E07B689B687A6812685A6100BF78
:100964000C37BD465DF8047B7047000080B584B049
:1009740000AF78607B689B68002B00F0C8807B68C0
:100984009B68654A934204D101216448FFF71BFD2B
:100994001DE07B689B68624A934204D1012161484F
:1009A400FFF711FD13E07B689B685F4A934204D113
:1009B40001215E48FFF707FD09E07B689B685C4AFC
:1009C400934204D101215B48FFF7FDFC00BF7B6823
:1009D4001B683B817B689B79032B02D100237B81BD
:1009E40032E07B689B79002B17D17B685B799BB2E3
:1009F40003F00F037B817B685B79182B04D17B6840
:100A04009B683A891A611FE07B685B79282B1BD1AC
:100A14007B689B683A895A6116E07B689B791BB2B4
:100A240003F008031AB27B681B791BB203F00403BA
:100A34001BB213431AB27B68DB791BB203F00303C6
:100A44001BB213431BB27B813B89DBB2002B2BD03F
:100A54000023FB6025E03A89FB6842FA03F303F0C4
:100A64000103002B1AD07B689B681A68FB689B0003
:100A74000F2101FA03F3DB4319467B689B680A40A4
:100A84001A607B689B681A687989FB689B0001FA85
:100A940003F319467B689B680A431A60FB680133B9
:100AA400FB60FB68072BD6D93B89FF2B30D93B89E8
:100AB4001B0A3B810023FB6025E03A89FB6842FA6C
:100AC40003F303F00103002B1AD07B689B685A6878
:100AD400FB689B000F2101FA03F3DB4319467B6893
:100AE4009B680A405A607B689B685A687989FB68EE
:100AF4009B0001FA03F319467B689B680A435A601A
:100B0400FB680133FB60FB68072BD6D900E000BF0C
:100B14001037BD4680BD00BF000801400200180028
:100B2400000C0140030018000010014004001800EC
:100B3400001401400500180080B500AF0420FFF741
:100B4400B7FD094B1B68094AA2FB03239B0C084A07
:100B54001360074B1B684FF47A7202FB03F3054AD8
:100B6400136000BF80BD00BF0000002083DE1B4374
:100B7400500000205400002080B485B000AF03462C
:100B8400FB800023FB6035E0FB88322B0AD91E4B27
:100B94001B681E4A322101FB03F35360FB88323B7E
:100BA400FB8008E0FB88184A1268184902FB03F32B
:100BB4004B600023FB80154B00229A60134B1B688B
:100BC400124A43F001031360104B1B68FB60FB687F
:100BD40003F00103002B04D0FB6803F48033002BE3
:100BE400F2D00A4B1B68094A23F001031360074B38
:100BF40000229A60FB88002BC6D100BF00BF1437C7
:100C0400BD465DF8047B70475400002010E000E00E
:100C140080B582B000AFFFF78FFF0023FB7117E0B0
:100C2400FB791B010E4A13441846FFF79FFEFB791C
:100C34001B010B4A1A44FB7909491B010B440F336E
:100C44001B7819461046FFF776FEFB790133FB71DA
:100C5400FB79022BE4D900BF00BF0837BD4680BD35
:100C64000400002080B582B000AF0346FB71FB791D
:100C74001B01044A13441846FFF74AFE00BF083715
:100C8400BD4680BD0400002070B50D4D0D4C641BA5
:100C9400A4100026A64209D10B4D0C4C00F018F804
:100CA400641BA4100026A64205D170BD55F8043B70
:100CB40098470136EEE755F8043B98470136F2E7CA
:100CC400FC0C0008FC0C0008FC0C0008000D0008DB
:100CD400F8B500BFF8BC08BC9E467047F8B500BF25
:080CE400F8BC08BC9E467047F5
:100CEC0000000000000000000102030406070809D0
:040CFC00A901000842
:040D00008501000861
:100D040000127A00002000000004100100140140C9
:100D14000001000100400000000410010014014023
:100D240000010001008000000004100100140140D3
:040D340000010001B9
:04000005080006F1F8
:00000001FF
