:020000040800F2
:10000000008001207D0C0008EB020008F9020008C6
:10001000FF020008050300080B03000800000000B1
:1000200000000000000000000000000011030008B4
:100030001F030008000000002D0300083B03000818
:10004000C50C0008C50C0008C50C0008C50C00084C
:10005000C50C0008C50C0008C50C0008C50C00083C
:10006000C50C0008C50C0008C50C0008C50C00082C
:10007000C50C0008C50C0008C50C0008C50C00081C
:10008000C50C0008C50C0008C50C0008C50C00080C
:10009000C50C0008C50C0008C50C0008C50C0008FC
:1000A000C50C000849030008C50C0008C50C000871
:1000B000C50C0008C50C0008C50C0008C50C0008DC
:1000C000C50C0008C50C0008C50C0008C50C0008CC
:1000D000C50C0008C50C0008C50C0008C50C0008BC
:1000E000C50C0008C50C0008C50C0008C50C0008AC
:1000F00079030008C50C0008C50C0008C50C0008F1
:10010000C50C0008C50C0008C50C0008C50C00088B
:10011000C50C0008C50C0008C50C0008C50C00087B
:10012000C50C0008C50C0008C50C0008C50C00086B
:10013000C50C0008C50C0008C50C0008C50C00085B
:1001400000000000000000000000000000000000AF
:10015000C50C0008C50C0008C50C0008C50C00083B
:10016000C50C0008C50C0008C50C0008C50C00082B
:10017000C50C0008C50C0008C50C0008C50C00081B
:04018000C50C0008A2
:1001900010B5054C237833B9044B13B10448AFF3C1
:1001A00000800123237010BDE80000200000000043
:1001B000F026000808B5034B1BB103490348AFF311
:1001C000008008BD00000000EC000020F0260008C0
:1001D00001F0FF01102A2BDB10F0070F08D010F8F8
:1001E000013B013A8B422DD010F0070F42B3F6D1FC
:1001F000F0B441EA012141EA014122F007047FF015
:1002000000070023F0E80256083C85EA010586EA6B
:10021000010685FA47F5A3FA87F586FA47F6A5FAA7
:1002200087F68EB9EED1F0BC01F0FF0102F00702B3
:1002300032B110F8013B013A83EA010313B1F8D15E
:100240000020704701387047002D06BF354603383F
:10025000073815F0010F07D1013015F4807F02BF78
:10026000013015F4C03F0130F0BC0138704700BFC9
:1002700080B500AF00F0C4F80121012000F082F940
:1002800000BF00F01BF90346002BFAD001223B21EE
:10029000022000F00DFA002000F07EFB0121022078
:1002A00000F070F900BF192000F0E0F80346012BC0
:1002B000F9D1002000F0BAF9042000F0E3F904209D
:1002C00000F0CAF9012000F04BFB022000F03AFADE
:1002D00000BF00F04DFA0346022BFAD1002000F0D7
:1002E0003FFB00F035FD00BF80BD80B400AF00BF14
:1002F000BD465DF8047B704780B400AFFEE780B474
:1003000000AFFEE780B400AFFEE780B400AFFEE7C9
:1003100080B400AF00BFBD465DF8047B704780B479
:1003200000AF00BFBD465DF8047B704780B400AFEE
:1003300000BFBD465DF8047B704780B400AF00BFCE
:10034000BD465DF8047B704780B500AF01210948C8
:1003500000F047FC0346002B09D0022001F080F991
:10036000002001F07DF90121024800F053FC00BF9C
:1003700080BD00BF002C014080B500AF01210748BF
:1003800000F02FFC0346002B06D0012001F068F995
:100390000121024800F03EFC00BF80BD0034014056
:1003A00080B500AF00F020F8FFF762FF01F0A8F879
:1003B00001F02EF900F046FF00F0DCFF074801F0E5
:1003C00019FA074B1B685A1C05490A60194605486B
:1003D00001F08AF9012001F0FFF8F2E70827000890
:1003E000040100201827000880B483B000AF07F193
:1003F00010037B6000BF0C37BD465DF8047B70477F
:1004000080B400AF184A136843F00103136000BFC3
:10041000154B1B68C3F34003DBB2012BF8D1124A22
:1004200053686FF30103536000BF0F4B5B68C3F366
:100430008103DBB2002BF8D10B4B00225A600A4B30
:100440001B68094A23F0867323F480331360064B3C
:1004500000221A63044B4FF41F029A6000BFBD468E
:100460005DF8047B704700BF0010024080B485B087
:1004700000AF78600023FB737B681B0C03F18043A3
:1004800003F504331A687B6803F01F03012101FAA6
:1004900003F31A407B6803F01F03012101FA03F301
:1004A0009A4202D00023FB7301E00123FB73FB7B24
:1004B00018461437BD465DF8047B704780B582B09E
:1004C00000AF00237B600023FB7002E07B680133F8
:1004D0007B601120FFF7CAFF0346012B03D07B6826
:1004E000B3F5405FF2D31120FFF7C0FF0346012BA5
:1004F00002D00023FB7001E00123FB70FB7818465B
:100500000837BD4680BD80B483B000AF78600B462D
:10051000FB70FB78012B16D17B681B0C03F1804329
:1005200003F5043319687B6803F01F0301229A4026
:100530007B681B0C03F1804303F50433184641EA42
:100540000203036017E07B681B0C03F1804303F593
:10055000043319687B6803F01F03012202FA03F3D6
:10056000DA437B681B0C03F1804303F50433184620
:1005700001EA0203036000BF0C37BD465DF8047B4F
:100580007047000080B483B000AF03460A46FB7199
:100590001346BB71FB79042B3ED801A252F823F01D
:1005A000B5050008C9050008DD050008F1050008CB
:1005B000050600081C4ABB7903F00103D9B2136891
:1005C00061F30003136028E0174ABB7903F00103CD
:1005D000D9B2136861F3104313601EE0124ABB796D
:1005E00003F00103D9B2136861F31863136014E0D8
:1005F0000D4ABB7903F00103D9B2136A61F300031A
:1006000013620AE0084ABB7903F00103D9B2536AC6
:1006100061F30003536200E000BF00BF0C37BD462A
:100620005DF8047B704700BF0010024080B483B0C7
:1006300000AF0346FB71074AFB7903F00F03D9B201
:10064000536861F30713536000BF0C37BD465DF874
:10065000047B70470010024080B483B000AF0346B3
:10066000FB71074AFB7903F00703D9B2536861F3C2
:100670000A23536000BF0C37BD465DF8047B70470A
:100680000010024080B483B000AF0346FB71074AFC
:10069000FB7903F00703D9B2536861F3CD235360AC
:1006A00000BF0C37BD465DF8047B70470010024068
:1006B00080B483B000AF0346FB710B46BB71134699
:1006C0007B71FB79002B05D11D4A53686FF31043F2
:1006D000536012E01A4A536843F480335360FB7945
:1006E000012B05D1164A53686FF35143536004E060
:1006F000134A536843F400335360114ABB7903F043
:100700000F03D9B2536861F395435360BB791B1152
:100710000B4A03F00303D9B2536861F35E7353606D
:10072000074A7B7903F00103D9B2536861F3DF73A1
:10073000536000BF0C37BD465DF8047B704700BFB7
:100740000010024080B483B000AF0346FB71074A3B
:10075000FB7903F00303D9B2536861F301035360DB
:1007600000BF0C37BD465DF8047B704700100240A7
:1007700080B400AF044B5B68C3F38103DBB218465F
:10078000BD465DF8047B70470010024080B58AB01A
:1007900000AF786000233B6200237B620023FB6193
:1007A0000023BB6100237B6100233B61FFF7E0FF77
:1007B0000346FB73FB7B022B20D0022B69DC002B52
:1007C00002D0012B16D064E05D4B5B6DC3F3402378
:1007D000DBB2002B0AD05A4B1B6BC3F34063DBB276
:1007E000002B03D07B68574A1A6056E07B68564A54
:1007F0001A6052E07B68544A1A604EE0504B5B68C6
:10080000C3F30043DBB2BB614D4B5B68C3F383436F
:10081000DBB27B624A4B5B68C3F34173DBB2FB61C3
:10082000FB69002B02D17B6A0F2B06D1FB691A01F1
:100830007B6A134401337B6202E07B6A02337B6292
:10084000BB69002B06D17B6A404A03FB02F27B683E
:100850001A6022E03A4B5B68C3F34043DBB2002BE3
:1008600010D0374B5B6DC3F30133DBB23B623B6AA5
:100870000233354AB2FBF3F37A6A03FB02F27B6878
:100880001A600AE07B6A304A03FB02F27B681A6056
:1008900003E07B682C4A1A6000BF294B5B68C3F3F6
:1008A0000313DBB27B612A4A7B6913441B783B61EB
:1008B0007B681A683B69DA407B685A60204B5B684A
:1008C000C3F30223DBB27B61224A7B6913441B78AA
:1008D0003B617B685A683B69DA407B68DA60184B99
:1008E0005B68C3F3C223DBB27B611B4A7B691344A1
:1008F0001B783B617B685A683B69DA407B689A6089
:100900000F4B5B68C3F30073DBB27B617B699B00B9
:100910000B4A5268C2F38132D2B213437B610F4A51
:100920007B6913441B783B617B689A683B69B2FB27
:10093000F3F27B681A6100BF2837BD4680BD00BF57
:1009400000100240006CDC0200127A0000093D0039
:100950002C2700083C270008442700084C270008E3
:1009600080B483B000AF0346FB71FB79012B05D146
:10097000084A536D43F03003536504E0054A536D54
:100980006FF30513536500BF0C37BD465DF8047B5C
:10099000704700BF0010024080B483B000AF034630
:1009A000FB71074AFB7903F00303D9B2536D61F37E
:1009B0000D33536500BF0C37BD465DF8047B7047AF
:1009C0000010024080B485B000AF78607B6803F00F
:1009D0000703FB600C4BDB68BB60BA684FF6FF0394
:1009E0001340BB60FB681A02BB68134343F0BF634C
:1009F00043F40033BB60044ABB68D36000BF1437C4
:100A0000BD465DF8047B704700ED00E080B400AFA8
:100A1000044BDB681B0A03F007031846BD465DF86C
:100A2000047B704700ED00E080B483B000AF034664
:100A3000FB7197F90730002B0BDBFB7903F01F02EA
:100A4000074997F907305B09012000FA02F241F8E3
:100A5000232000BF0C37BD465DF8047B704700BF04
:100A600000E100E080B483B000AF03463960FB7161
:100A700097F90730002B0ADB3B68DAB20C4997F98B
:100A800007301201D2B20B4483F800230AE03B681E
:100A9000DAB20849FB7903F00F03043B1201D2B22A
:100AA0000B441A7600BF0C37BD465DF8047B7047D7
:100AB00000E100E000ED00E080B489B000AFF86034
:100AC000B9607A60FB6803F00703FB61FB69C3F15F
:100AD0000703042B28BF0423BB61FB690433062BE7
:100AE00002D9FB69033B00E000237B614FF0FF323A
:100AF000BB6902FA03F3DA43BB681A407B699A4088
:100B00004FF0FF317B6901FA03F3D9437B680B4057
:100B1000134318462437BD465DF8047B704780B503
:100B200086B000AF0346B9607A60FB7300237B6137
:100B3000FFF76CFF03467A68B9681846FFF7BCFFF9
:100B4000786197F90F3079691846FFF78BFF97F9AD
:100B50000F301846FFF768FF00BF1837BD4680BD4D
:100B600080B582B000AF0346FB71FB791846FFF7F2
:100B700029FF00BF0837BD4680BD000080B483B0A8
:100B800000AF0346FB71FB79042B06D1094B1B68B0
:100B9000084A43F00403136005E0064B1B68054A4E
:100BA00023F00403136000BF0C37BD465DF8047BDF
:100BB000704700BF10E000E080B483B000AF786001
:100BC0000B46FB70FB7803F00103D9B27A68136817
:100BD00061F30003136000BF0C37BD465DF8047B72
:100BE000704780B485B000AF786039600023FB7334
:100BF0007B681A693B681340002B02D00123FB730A
:100C000001E00023FB73FB7B18461437BD465DF8FB
:100C1000047B704780B483B000AF786039603B6874
:100C2000DA437B681A6100BF0C37BD465DF8047B70
:100C3000704780B483B000AF78600B467B807B88C0
:100C4000C3F308027B685A6000BF0C37BD465DF8ED
:100C5000047B704780B483B000AF786039607B68F4
:100C60001A683B681340002B01D0012300E00023E9
:100C700018460C37BD465DF8047B7047002103E041
:100C80000B4B5B58435004310A480B4B42189A42B5
:100C9000F6D30A4A02E0002342F8043B084B9A428A
:100CA000F9D300F011F800F0F3FCFFF779FB70477F
:100CB0000428000800000020E8000020E8000020D0
:100CC00024010020FEE7000080B400AF1E4BD3F8E3
:100CD00088301D4A43F47003C2F888301B4A1368F9
:100CE00043F00103136000BF184B1B68C3F34003BC
:100CF000DBB2012BF8D1154A53686FF3010353603F
:100D000000BF124B5B68C3F38103DBB2002BF8D149
:100D10000E4B00225A600D4B1B680C4A23F0867361
:100D200023F480331360094B00221A63074B4FF4FE
:100D30001F029A60044B4FF000629A6000BFBD46EC
:100D40005DF8047B704700BF00ED00E0001002403A
:100D500080B588B000AF0023BB610023FB61002396
:100D60007B6100233B610023FB600023BB60FFF736
:100D7000FFFC0346FB71FB79022B20D0022B69DCC0
:100D8000002B02D0012B16D064E03F4B5B6DC3F308
:100D90004023DBB2002B0AD03B4B1B6BC3F34063F9
:100DA000DBB2002B03D0394B394A1A6056E0374B7F
:100DB000384A1A6052E0354B364A1A604EE0324BE0
:100DC0005B68C3F30043DBB23B612F4B5B68C3F34B
:100DD0008343DBB2FB612C4B5B68C3F34173DBB233
:100DE0007B617B69002B02D1FB690F2B06D17B69EC
:100DF0001A01FB6913440133FB6102E0FB69023312
:100E0000FB613B69002B06D1FB69234A02FB03F31C
:100E10001E4A136022E01C4B5B68C3F34043DBB205
:100E2000002B10D0184B5B6DC3F30133DBB2BB61F9
:100E3000BB690233174AB2FBF3F3FA6902FB03F30F
:100E4000124A13600AE0FB69124A02FB03F30F4ADD
:100E5000136003E00D4B0F4A1A6000BF0A4B5B683A
:100E6000C3F30313DBB2FB600C4AFB6813441B782B
:100E7000BB60064B1A68BB6822FA03F3034A13608F
:100E800000BF2037BD4680BD00100240000000209A
:100E9000006CDC0200127A0000093D0054270008B3
:100EA00080B586B000AFF860B9607A6000237B61DE
:100EB0000AE0AFF300800146BB685A1CBA60CAB2B0
:100EC0001A707B6901337B617A697B689A42F0DB37
:100ED0007B6818461837BD4680BD80B586B000AF28
:100EE000F860B9607A6000237B6109E0BB685A1C36
:100EF000BA601B78184600F077F87B6901337B6194
:100F00007A697B689A42F1DB7B6818461837BD46E0
:100F100080BD80B483B000AF78604FF0FF331846D7
:100F20000C37BD465DF8047B704780B483B000AFDA
:100F3000786039603B684FF400525A6000231846CD
:100F40000C37BD465DF8047B704780B483B000AFBA
:100F50007860012318460C37BD465DF8047B704766
:100F600080B485B000AFF860B9607A60002318469D
:100F70001437BD465DF8047B7047000080B586B02D
:100F800000AF7860144A154BD31A7B617B693B61D3
:100F9000134B1B68002B02D1114B124A1A60104BE5
:100FA0001A687B6813443A699A4207D200F06AFBD8
:100FB00003460C221A604FF0FF3309E0084B1B6810
:100FC000FB60074B1A687B681344054A1360FB6893
:100FD00018461837BD4680BD00800120000400007F
:100FE000080100202801002080B582B000AF7860A1
:100FF00000BF80210848FFF72DFE0346002BF8D0E4
:101000007B689BB219460448FFF713FE7B681846BD
:101010000837BD4680BD00BF0038014080B483B0B2
:1010200000AF78607B689B68D9687B681A687B68CA
:101030009B684A40DA6000BF0C37BD465DF8047B10
:10104000704780B483B000AF78600B46FB70FB78CC
:10105000002B05D07B689B687A6812681A6104E0EF
:101060007B689B687A6812685A6100BF0C37BD467E
:101070005DF8047B7047000080B584B000AF7860F5
:101080007B689B68002B00F0C8807B689B68654A82
:10109000934204D101216448FFF735FA1DE07B68D3
:1010A0009B68624A934204D101216148FFF72BFA01
:1010B00013E07B689B685F4A934204D101215E483C
:1010C000FFF721FA09E07B689B685C4A934204D1F0
:1010D00001215B48FFF717FA00BF7B681B683B8163
:1010E0007B689B79032B02D100237B8132E07B68F4
:1010F0009B79002B17D17B685B799BB203F00F03C0
:101100007B817B685B79182B04D17B689B683A896B
:101110001A611FE07B685B79282B1BD17B689B6879
:101120003A895A6116E07B689B791BB203F0080389
:101130001AB27B681B791BB203F004031BB2134382
:101140001AB27B68DB791BB203F003031BB21343B3
:101150001BB27B813B89DBB2002B2BD00023FB60D1
:1011600025E03A89FB6842FA03F303F00103002B00
:101170001AD07B689B681A68FB689B000F2101FAF4
:1011800003F3DB4319467B689B680A401A607B685F
:101190009B681A687989FB689B0001FA03F319467A
:1011A0007B689B680A431A60FB680133FB60FB683D
:1011B000072BD6D93B89FF2B30D93B891B0A3B81B2
:1011C0000023FB6025E03A89FB6842FA03F303F051
:1011D0000103002B1AD07B689B685A68FB689B0050
:1011E0000F2101FA03F3DB4319467B689B680A4031
:1011F0005A607B689B685A687989FB689B0001FA92
:1012000003F319467B689B680A435A60FB68013305
:10121000FB60FB68072BD6D900E000BF1037BD4646
:1012200080BD00BF0008014002001800000C014012
:1012300003001800001001400400180000140140D1
:101240000500180080B582B000AF0023FB710CE0F0
:10125000FA7913465B001344DB00124A1344184624
:1012600000F026F8FB790133FB71FB79012BEFD9F4
:101270000320FFF775FC002200211920FFF74FFC27
:10128000002200212C20FFF74AFC01210648FFF72D
:1012900093FC01210548FFF78FFC00BF0837BD46CE
:1012A00080BD00BF34000020002C0140003401400C
:1012B00080B582B000AF78607B681B68002B4CD093
:1012C0007B681B68274A934204D101212648FFF717
:1012D0001AF909E07B681B68244A934204D1012172
:1012E0002348FFF710F900BF7B681B687A685268D3
:1012F000DA627B681B687A6892689A627B681A680F
:10130000536943F0010353617B68197B7B681A685A
:101310000B4603F00703D9B2136861F30613136099
:101320007B681B7D012B09D17B681B68D9687B68B2
:101330001A697B681B680A43DA600FE07B681B7DD3
:10134000002B0BD17B681B68D9687B681B69DA436B
:101350007B681B680A40DA6000E000BF0837BD46C2
:1013600080BD00BF002C01400B001800003401407C
:101370000D00180080B582B000AF0023FB7108E0BB
:101380000848FFF779FE084800F010F8FB790133B0
:10139000FB71FB79002BF3D000BF00BF0837BD46BF
:1013A00080BD00BF740000206400002080B58AB0BA
:1013B00000AF78607B681B68002B00F091807B6831
:1013C0001B68494A934203D101214848FFF79BF823
:1013D00007F10C031846FFF7D9F97B681B68424AEE
:1013E00093420ED07B681B68414A934209D07B68C8
:1013F0001B68404A934204D07B681B683E4A934274
:1014000002D17B697B6201E0BB697B627A6A134629
:101410009B0013445B001A467B685B68B2FBF3F3E6
:101420003B62396A354BA3FB0123DA0813469B0064
:1014300013445B00CA1A042A06D83B6A2F4AA2FB4F
:101440000323DB083B6206E03B6A2C4AA2FB032332
:10145000DB0801333B627B681A683B6A99B2936888
:1014600061F30F0393607B68197A7B681A680B46F7
:1014700003F00103D9B2D36861F30C33D3607B6806
:10148000597A7B681A680B4603F00303D9B21369D3
:1014900061F30D3313617B68997A7B681A680B4698
:1014A00003F00103D9B2D36861F3C303D3607B684F
:1014B000D97A7B681A680B4603F00103D9B2D36866
:1014C00061F38203D3607B68197B7B681A680B46E3
:1014D00003F00103D9B2D36861F34D33D36000E068
:1014E00000BF2837BD4680BD003801400E001800FF
:1014F000006001400064014000680140CDCCCCCCCC
:1015000080B500AF0420FFF739FB094B1B68094A7F
:10151000A2FB03239B0C084A1360074B1B684FF484
:101520007A7202FB03F3054A136000BF80BD00BF5F
:101530000000002083DE1B430C010020100100206E
:1015400080B485B000AF0346FB800023FB6035E02C
:10155000FB88322B0AD91E4B1B681E4A322101FB25
:1015600003F35360FB88323BFB8008E0FB88184A9A
:101570001268184902FB03F34B600023FB80154BF4
:1015800000229A60134B1B68124A43F00103136058
:10159000104B1B68FB60FB6803F00103002B04D0B9
:1015A000FB6803F48033002BF2D00A4B1B68094A16
:1015B00023F001031360074B00229A60FB88002B85
:1015C000C6D100BF00BF1437BD465DF8047B70472D
:1015D0001001002010E000E080B584B000AF0346A9
:1015E000FB800023FB810AE04FF4FA70FFF7A8FFAD
:1015F0004FF4FA70FFF7A4FFFB890133FB81FA89EE
:10160000FB889A42F0D300BF00BF1037BD4680BDB3
:1016100080B582B000AF0023FB7117E0FB791B019E
:101620000E4A13441846FFF727FDFB791B010B4AAE
:101630001A44FB7909491B010B440F331B781946E7
:101640001046FFF7FEFCFB790133FB71FB79022B9F
:10165000E4D900BF00BF0837BD4680BD04000020AC
:1016600080B582B000AF0346FB71FB791B01044AD1
:1016700013441846FFF7D2FC00BF0837BD4680BDB3
:1016800004000020014B1868704700BF8400002050
:1016900070B50D4D0D4C641BA4100026A64209D157
:1016A0000B4D0C4C01F024F8641BA4100026A6423C
:1016B00005D170BD55F8043B98470136EEE755F863
:1016C000043B98470136F2E7FC270008FC27000896
:1016D000FC2700080028000802440346934200D17A
:1016E000704703F8011BF9E70FB40A4B13B51C68E8
:1016F00024B1A36913B9204600F05EFA05AB049A41
:10170000A1680193204600F067FC02B0BDE81040DC
:1017100004B070478400002070B50E46054618B12D
:1017200083690BB900F048FAAB69AC6813B9284675
:1017300000F042FA2C4B9C4220D16C68636EDB07B0
:1017400005D4A389980502D4A06D00F0D3FAA3892B
:1017500019071DD52369DBB1013EA36816F8011FE7
:10176000013BA36039BB002B38DA22460A21284608
:1017700000F048F8013011D00A2511E01B4B9C42C3
:1017800001D1AC68DAE71A4B9C4208BFEC68D5E798
:101790002146284600F088F80028DDD04FF0FF35BC
:1017A000636EDA0705D4A3899B0502D4A06D00F00F
:1017B000A2FA284670BD002B04DAA2699A4206DC20
:1017C0000A2904D023685A1C22601970C5E72246F2
:1017D000284600F017F80130BFD1DFE723680A255B
:1017E0005A1C22601D70DBE788270008A827000824
:1017F00068270008024B01461868FFF78DBF00BF3D
:1018000084000020F8B50E461446054618B18369D9
:101810000BB900F0D1F9214B9C422BD16C68A36924
:10182000A360A3891A072FD523696BB323692068A6
:10183000C01A6369F6B28342374604DC2146284663
:1018400000F026F930BBA368013BA36023685A1C53
:1018500022601E7063690130834204D0A389DB07D4
:1018600006D50A2E04D12146284600F011F988B980
:101870003846F8BD0A4B9C4201D1AC68CFE7094B12
:101880009C4208BFEC68CAE72146284600F00CF8E5
:101890000028CBD04FF0FF37EAE700BF88270008C9
:1018A000A827000868270008324B70B51D68064657
:1018B0000C4625B1AB6913B9284600F07DF92E4BD3
:1018C0009C420FD16C68A389B4F90C2019072CD461
:1018D000DD0611D40923336042F04003A3814FF0A9
:1018E000FF303EE0254B9C4201D1AC68EBE7244B36
:1018F0009C4208BFEC68E6E7580712D5616B41B11E
:1019000004F14403994202D0304600F05BFA002310
:101910006363A38923F02403A38100236360236905
:101920002360A38943F00803A38123694BB9A389EA
:1019300003F42073B3F5007F03D02146304600F056
:1019400001FAA089B4F90C2010F001030AD0002399
:10195000A36063695B42A361236943B910F080000F
:10196000BAD170BD810758BF6369A360F4E7002056
:10197000F7E700BF8400002088270008A827000898
:10198000682700088A892DE9F041054610070C46B2
:1019900058D44B68002B05DC0B6C002B02DC0020BC
:1019A000BDE8F081E66A002EF9D0002312F48052DF
:1019B0002F682B6032D0606DA3895A0705D5636804
:1019C000C01A636B0BB1236CC01A00230246E66A8F
:1019D000216A2846B047431CA38906D129681D29DE
:1019E0002CD82A4ACA40D60728D500226260D904DA
:1019F0002269226004D5421C01D12B6803B96065BD
:101A0000616B2F600029CAD004F14403994202D0CF
:101A1000284600F0D7F900206063C1E7216A01235E
:101A20002846B047411CC7D12B68002BC4D01D2BC2
:101A300001D0162B01D12F60B1E7A38943F04003F9
:101A4000A381ADE70F69002FA9D093070E6808BFE7
:101A50004B690F6018BF0023A6EB07088B60B8F135
:101A6000000F9CDD216AA66A43463A462846B047E5
:101A7000002806DCA38943F04003A3814FF0FF3028
:101A80008EE70744A8EB0008E9E700BF010040200B
:101A900038B50B6905460C4613B90025284638BDF4
:101AA00018B183690BB900F087F8144B9C421BD125
:101AB0006C68B4F90C30002BEFD0626ED00704D400
:101AC000990502D4A06D00F015F928462146FFF7CC
:101AD00059FF636EDA070546E0D4A3899B05DDD480
:101AE000A06D00F008F9D9E7054B9C4201D1AC6824
:101AF000DFE7044B9C4208BFEC68DAE78827000860
:101B0000A827000868270008002310B50446C0E98C
:101B10000033C0E90433836081814366C2818361FD
:101B2000194608225C30FFF7D7FD054B6362054B71
:101B3000A362054BE362054B2462236310BD00BF23
:101B400081250008A3250008DB250008FF250008E3
:101B5000014900F0AFB800BF911A000870B56822C3
:101B60004D1E55430E4605F1740100F097F90446E9
:101B700040B10021C0E900160C30A06005F16802F8
:101B8000FFF7AAFD204670BD014800F0B3B800BFC2
:101B900015010020014800F0AEB800BF150100207B
:101BA000014800F0A7B800BF16010020014800F06E
:101BB000A2B800BF1601002010B50446FFF7F0FFE1
:101BC000A3691BB1BDE81040FFF7F0BFC4E91233B1
:101BD0002365134B134A1B68A262A34204BF01236F
:101BE000A361204600F020F86060204600F01CF859
:101BF000A060204600F018F80022E0600421606830
:101C0000FFF782FFA06801220921FFF77DFFE0684E
:101C100002221221FFF778FF0123A361D2E700BF60
:101C200064270008511B0008F8B50746FFF7ACFF12
:101C30001E4B1E68B36913B93046FFF7BDFF483627
:101C4000D6E90134013B03D533680BB33668F7E7B7
:101C5000B4F90C50D5B9164BE36004F15800656631
:101C600000F047F8FFF796FFC4E90155C4E90455B1
:101C70002560A5610822294604F15C00FFF72CFDD0
:101C8000C4E90D55C4E912552046F8BD6834D9E7BA
:101C900004213846FFF762FF044630600028D5D1A2
:101CA000FFF778FF0C233B60EEE700BF64270008D6
:101CB0000100FFFF2DE9F8430646884600F148047D
:101CC0000027D4E90195B9F1010905D52468002C54
:101CD000F7D13846BDE8F883AB89012B07D9B5F9B0
:101CE0000E30013303D029463046C04707436835DC
:101CF000E9E770477047704770B50E46B1F90E10AE
:101D0000002996B014461D4608DAB6F90C300022B8
:101D10002A601A0610D44FF480630EE06A4600F081
:101D200095FC0028F1DB019A02F47042A2F5005301
:101D30005A425A412A60EEE740230020236016B041
:101D400070BD00008B8973B59D0706460C4607D50C
:101D500004F14703236023610123636102B070BD76
:101D600001AB6A46FFF7C8FF00990546304600F010
:101D700095F848B9B4F90C309A05EFD423F0030371
:101D800043F00203A381E3E70D4BB362A389206014
:101D900043F08003A381009B6361019B20615BB1E1
:101DA000B4F90E10304600F063FC28B1A38923F08B
:101DB000030343F00103A381A0890543A581CDE777
:101DC000511B000837B5002944D051F8043C01905C
:101DD000002BA1F10404B8BFE41800F06BFC1E4A0C
:101DE0000198136833B96360146003B0BDE83040F4
:101DF00000F066BCA34208D9256861198B4201BF77
:101E000019685B6849192160EDE71A465B680BB1F8
:101E1000A342FAD911685518A5420BD12468214470
:101E20005418A3421160E0D11C685B6853602144E0
:101E30001160DAE702D90C230360D6E7256861193F
:101E40008B4204BF19685B68636004BF4919216055
:101E50005460CAE703B030BD1801002070B50E4EC3
:101E60000C463168054611B900F07AFB3060214616
:101E7000284600F075FB431C0AD0C41C24F0030460
:101E8000A04207D0211A284600F06AFB013001D198
:101E90004FF0FF34204670BD1C0100202DE9F041B9
:101EA000CD1C25F0030508350C2D38BF0C25002D61
:101EB000074601DBA94205D90C233B6000263046CA
:101EC000BDE8F0812E4E00F0F5FB33681C4634BBB4
:101ED00029463846FFF7C2FF431C04464DD13468FB
:101EE0002646002E40D123683146384604EB0308CD
:101EF00000F036FB80453AD1216803356D1A25F094
:101F0000030508350C2D38BF0C2529463846FFF748
:101F1000A5FF01302BD023682B4423600EE02268FC
:101F2000521B1ED40B2A16D96119A342256018BF73
:101F30005960636808BF316062514B60384604F1F4
:101F40000B0600F0BDFB26F00706231DF21AB6D0E3
:101F50009B1BA350B3E76268A3420CBF32605A6078
:101F6000ECE723466468B2E734467668B9E70C23A9
:101F70003B60384600F0A4FBA1E72560DEE700BF28
:101F8000180100209368013B002B10B4936008DA1D
:101F90009469A34201DB0A2903D15DF8044BFFF7E2
:101FA00031BC1368581C1060197008465DF8044B6A
:101FB0007047F8B506460F461446D518AC4201D115
:101FC000002007E014F8011B3A463046FFF7DAFF1D
:101FD000431CF3D1F8BD00002DE9F04F0D469DB034
:101FE00014469846064618B183690BB9FFF7E4FD1D
:101FF000894B9D421BD175686B6ED90705D4AB899F
:102000009A0502D4A86DFFF775FEAB891B0701D5B1
:102010002B69EBB929463046FFF746FCC0B16B6E21
:10202000DC070ED54FF0FF301DB0BDE8F08F7B4BC5
:102030009D4201D1B568DFE7794B9D4208BFF56845
:10204000DAE7AB899805EDD4A86DFFF754FEE9E710
:102050000023099320238DF82930CDF80C803023FC
:10206000DFF8C0818DF82A304FF0010923469A46E7
:1020700013F8012B0AB1252AF9D1BAEB040B0BD0C6
:102080005B46224629463046FFF793FF013000F0B9
:10209000AA80099A5A4409929AF80030002B00F05D
:1020A000A28000234FF0FF32CDE905230AF1010A97
:1020B000049307938DF853301A935446052214F86D
:1020C000011B5848FEF784F8049AD8B9D10644BFDA
:1020D00020238DF85330130744BF2B238DF8533042
:1020E0009AF800302A2B15D0079A544600204FF05A
:1020F0000A0C214611F8013B303B092B4ED9B0B1F7
:10210000079214E0A0EB080309FA03F313430493C6
:10211000A246D2E7039B191D1B680391002BBBBF8E
:102120005B4242F0020207930793B8BF0492237800
:102130002E2B0CD163782A2B35D1039B1A1D1B68DB
:102140000392002BB8BF4FF0FF3302340593DFF842
:10215000E4A0217803225046FEF73AF840B140232C
:10216000A0EB0A0003FA00F0049B0343013404933C
:1021700014F8011B2C488DF828100622FEF728F8C9
:1021800000283FD0294B1BBB039B073323F00703D9
:1021900008330393099B3B44099367E70CFB023226
:1021A0000C460120A5E700230134059319464FF0A2
:1021B0000A0C204610F8012B303A092A03D9002BCB
:1021C000C5D00591C3E70CFB012104460123F0E7CC
:1021D00003AB00932A46164B04A93046AFF30080A8
:1021E0000746781CD6D16B6ED90705D4AB899A0502
:1021F00002D4A86DFFF77FFDAB895B063FF512AFF8
:10220000099811E703AB00932A46094B04A930460D
:1022100000F080F8E4E700BF88270008A82700083E
:1022200068270008C8270008D2270008000000001F
:10223000B31F0008CE2700082DE9F047164699463F
:102240008A680B69DDF820809342B8BF134633607B
:1022500091F8432007460C460AB1013333602368E6
:10226000990642BF336802333360256815F00605CE
:1022700006D104F1190AE36832689B1AAB4226DCE6
:1022800094F84320131E226818BF012392062BD412
:1022900004F1430249463846C04701301ED0236846
:1022A000E568326803F00603042B08BFAD1AA36883
:1022B00022690CBF25EAE57500259342C4BF9B1A2D
:1022C000ED1800261A34B5421AD1002008E0012387
:1022D000524649463846C047013003D14FF0FF30DF
:1022E000BDE8F0870135C6E7E1185A1C302081F8B7
:1022F0004300224494F8451082F843100233C7E7A4
:102300000123224649463846C0470130E6D001360F
:10231000D9E700002DE9FF470F7E0C9D782F9146ED
:1023200080460C469A4601F1430207D8622F0AD82C
:10233000002F00F0D880582F00F0A38004F1420550
:1023400084F842703AE0A7F16303152BF6D801A197
:1023500051F823F0AD230008C12300083D230008F5
:102360003D2300083D2300083D230008C123000849
:102370003D2300083D2300083D2300083D230008BD
:10238000CD240008F1230008AF2400083D230008F5
:102390003D230008EF2400083D230008F123000836
:1023A0003D2300083D230008B72400082B681A1DB0
:1023B0001B682A6004F1420584F842300123A3E03F
:1023C00020682968060601F104030AD50E682B600F
:1023D000002E03DA2D23764284F843305E480A2328
:1023E00019E00E682B6010F0400F18BF36B2EFE70F
:1023F0002B682068191D2960010601D51E6802E0BE
:102400004606FBD51E8854486F2F0CBF08230A23AD
:10241000002184F843106568A560002DA2BF2168E3
:1024200021F0040121600EB9002D4DD01546B6FBF8
:10243000F3F103FB1167C75D05F8017D3746BB4229
:102440000E46F4D9082B0BD12368DE0708D5236983
:1024500061689942DEBF302305F8013C05F1FF3584
:10246000521B2261CDF800A04B4603AA21464046EC
:10247000FFF7E2FE01304CD14FF0FF3004B0BDE871
:10248000F087354881F845702968236851F8046B56
:1024900029601D0614D5DF0744BF43F020032360E5
:1024A0001EB9236823F0200323601023B0E72368BC
:1024B00043F0200323607823284884F84530E3E77D
:1024C000590648BFB6B2E6E71546BBE72B68266853
:1024D0006169181D286035061B6801D5196002E086
:1024E0007006FBD51980002323611546BAE72B68D7
:1024F0001A1D2A601D68626800212846FDF768FEE3
:1025000008B1401B606063682361002384F8433096
:10251000A8E723692A4649464046D0470130ABD058
:1025200023689B0713D4E068039B9842B8BF184602
:10253000A4E70123324649464046D04701309BD0AC
:102540000135E36803995B1AAB42F2DCEBE7002547
:1025500004F11906F5E700BFD9270008EA270008AB
:1025600038B5064D0023044608462B60FEF706FDED
:10257000431C02D12B6803B1236038BD2001002029
:1025800010B50C46B1F90E1000F0A0F80028ABBF52
:10259000636DA3891B1823F48053ACBF6365A381CB
:1025A00010BD2DE9F0411F468B89DB0505460C4621
:1025B000164605D5B1F90E100223002200F068F886
:1025C000A389B4F90E1023F48053A38132463B460D
:1025D0002846BDE8F04100F017B810B50C46B1F937
:1025E0000E1000F055F8431CA38915BF606523F455
:1025F000805343F48053A38118BFA38110BDB1F968
:102600000E1000F013B8000038B5074D0446084618
:10261000114600222A601A46FEF75FFC431C02D1D5
:102620002B6803B1236038BD2001002038B5064D6A
:102630000023044608462B60FEF76BFC431C02D1C6
:102640002B6803B1236038BD2001002038B5074D49
:1026500000230446084611462B60FEF766FC431C27
:1026600002D12B6803B1236038BD00BF20010020D8
:1026700038B5064D0023044608462B60FEF765FC7E
:10268000431C02D12B6803B1236038BD2001002018
:1026900038B5074D04460846114600222A601A46FE
:1026A000FEF75EFC431C02D12B6803B1236038BDEA
:1026B000200100200148FFF71DBB00BF14010020CE
:1026C0000148FFF718BB00BF1401002038B5074DC3
:1026D00004460846114600222A601A46FEF7E0FB2F
:1026E000431C02D12B6803B1236038BD20010020B8
:1026F000F8B500BFF8BC08BC9E467047F8B500BFEF
:08270000F8BC08BC9E467047BE
:1027080048454C4C4F2C20574F524C4421200D002B
:10271800555341525420636F756E7465723A202583
:10272800750D0A000000000000000000010203040B
:102738000607080900000000010203040000000069
:102748000102030402040608020C0810000000003D
:1027580000000000010203040607080988000020A1
:102768000000000000000000000000000000000061
:102778000000000000000000000000000000000051
:102788000000000000000000000000000000000041
:102798000000000000000000000000000000000031
:1027A8000000000000000000000000000000000021
:1027B8000000000000000000000000000000000011
:1027C800232D302B2000686C4C0065666745464712
:1027D8000030313233343536373839414243444595
:1027E8004600303132333435363738396162636404
:0427F8006566000012
:0427FC00B50100081B
:04280000910100083A
:1028040000127A00002000000004100100140140AE
:102814000001000100400000000410010014014008
:1028240000010001008000000004100100140140B8
:1028340000010001002C014064000000FFFF0000C3
:10284400000000000100000001000000003401400D
:10285400E8030000FFFF000000000000010000008A
:10286400010000000038014000C201000000010125
:1028740001000100000200000004080100080140FA
:1028840000000000880000200000000088270008E5
:10289400A8270008682700080000000000000000C6
:1028A4000000000000000000000000000000000024
:1028B4000000000000000000000000000000000014
:1028C4000000000000000000000000000000000004
:1028D40000000000000000000000000000000000F4
:0828E4000000000000000000EC
:0400000508000C7D66
:00000001FF
