:020000040800F2
:1000000000800120A50C0008EB020008F90200089E
:10001000FF020008050300080B03000800000000B1
:1000200000000000000000000000000011030008B4
:100030001F030008000000002D0300083B03000818
:10004000ED0C0008ED0C0008ED0C0008ED0C0008AC
:10005000ED0C0008ED0C0008ED0C0008ED0C00089C
:10006000ED0C0008ED0C0008ED0C0008ED0C00088C
:10007000ED0C0008ED0C0008ED0C0008ED0C00087C
:10008000ED0C0008ED0C0008ED0C0008ED0C00086C
:10009000ED0C0008ED0C0008ED0C0008ED0C00085C
:1000A000ED0C000849030008ED0C0008ED0C0008F9
:1000B000ED0C0008ED0C0008ED0C0008ED0C00083C
:1000C000ED0C0008ED0C0008ED0C0008ED0C00082C
:1000D000ED0C0008ED0C0008ED0C0008ED0C00081C
:1000E000ED0C0008ED0C0008ED0C0008ED0C00080C
:1000F000ED0C0008ED0C0008ED0C0008ED0C0008FC
:10010000ED0C0008ED0C0008ED0C0008ED0C0008EB
:10011000ED0C0008ED0C0008ED0C0008ED0C0008DB
:10012000ED0C0008ED0C0008ED0C0008ED0C0008CB
:10013000ED0C0008ED0C0008ED0C0008ED0C0008BB
:1001400000000000000000000000000000000000AF
:10015000ED0C0008ED0C0008ED0C0008ED0C00089B
:10016000ED0C0008ED0C0008ED0C0008ED0C00088B
:10017000ED0C0008ED0C0008ED0C0008ED0C00087B
:04018000ED0C00087A
:1001900010B5054C237833B9044B13B10448AFF3C1
:1001A00000800123237010BD080100200000000022
:1001B000EC22000808B5034B1BB103490348AFF319
:1001C000008008BD000000000C010020EC220008A7
:1001D00001F0FF01102A2BDB10F0070F08D010F8F8
:1001E000013B013A8B422DD010F0070F42B3F6D1FC
:1001F000F0B441EA012141EA014122F007047FF015
:1002000000070023F0E80256083C85EA010586EA6B
:10021000010685FA47F5A3FA87F586FA47F6A5FAA7
:1002200087F68EB9EED1F0BC01F0FF0102F00702B3
:1002300032B110F8013B013A83EA010313B1F8D15E
:100240000020704701387047002D06BF354603383F
:10025000073815F0010F07D1013015F4807F02BF78
:10026000013015F4C03F0130F0BC0138704700BFC9
:1002700080B500AF00F0C2F80121012000F080F944
:1002800000BF00F019F90346002BFAD001223B21F0
:10029000022000F00BFA002000F07CFB012102207C
:1002A00000F06EF900BF192000F0DEF80346012BC4
:1002B000F9D1002000F0B8F9042000F0E1F90420A1
:1002C00000F0C8F9012000F049FB022000F038FAE4
:1002D00000BF00F04BFA0346022BFAD1002000F0D9
:1002E0003DFB00F049FD00BF80BD80B400AF00BF02
:1002F000BD465DF8047B704780B400AFFEE780B474
:1003000000AFFEE780B400AFFEE780B400AFFEE7C9
:1003100080B400AF00BFBD465DF8047B704780B479
:1003200000AF00BFBD465DF8047B704780B400AFEE
:1003300000BFBD465DF8047B704780B400AF00BFCE
:10034000BD465DF8047B704780B500AF01210A48C7
:1003500000F07FFC0346002B0CD0002001F02AFAAD
:10036000012001F027FA022001F024FA01210248BD
:1003700000F088FC00BF80BD002C014080B586B035
:1003800000AF00F02FF8FFF773FF01F0E9F901F07B
:1003900079F801F00FF901F04BF800F00AFE0021A6
:1003A000002000F0E7FD0D4800F040FE0023FB8236
:1003B000FB8A5A1CFA821A463B460949184601F044
:1003C00027FB0021012000F0D5FD3B46184600F038
:1003D0002DFE0A2000F0CCFEEAE700BF042300084F
:1003E0001423000880B483B000AF07F110037B60D2
:1003F00000BF0C37BD465DF8047B704780B400AF8A
:10040000184A136843F00103136000BF154B1B68C3
:10041000C3F34003DBB2012BF8D1124A53686FF3E8
:100420000103536000BF0F4B5B68C3F38103DBB272
:10043000002BF8D10B4B00225A600A4B1B68094A6B
:1004400023F0867323F480331360064B00221A6373
:10045000044B4FF41F029A6000BFBD465DF8047B59
:10046000704700BF0010024080B485B000AF7860D4
:100470000023FB737B681B0C03F1804303F50433FB
:100480001A687B6803F01F03012101FA03F31A4085
:100490007B6803F01F03012101FA03F39A4202D0A3
:1004A0000023FB7301E00123FB73FB7B1846143729
:1004B000BD465DF8047B704780B582B000AF002375
:1004C0007B600023FB7002E07B6801337B601120BE
:1004D000FFF7CAFF0346012B03D07B68B3F5405FEB
:1004E000F2D31120FFF7C0FF0346012B02D00023F7
:1004F000FB7001E00123FB70FB7818460837BD460E
:1005000080BD80B483B000AF78600B46FB70FB7891
:10051000012B16D17B681B0C03F1804303F50433D8
:1005200019687B6803F01F0301229A407B681B0C4B
:1005300003F1804303F50433184641EA02030360E4
:1005400017E07B681B0C03F1804303F50433196843
:100550007B6803F01F03012202FA03F3DA437B688E
:100560001B0C03F1804303F50433184601EA020330
:10057000036000BF0C37BD465DF8047B7047000088
:1005800080B483B000AF03460A46FB711346BB71CB
:10059000FB79042B3ED801A252F823F0B1050008E4
:1005A000C5050008D9050008ED050008010600088A
:1005B0001C4ABB7903F00103D9B2136861F300034D
:1005C000136028E0174ABB7903F00103D9B213681E
:1005D00061F3104313601EE0124ABB7903F001037C
:1005E000D9B2136861F31863136014E00D4ABB7944
:1005F00003F00103D9B2136A61F3000313620AE046
:10060000084ABB7903F00103D9B2536A61F30003CE
:10061000536200E000BF00BF0C37BD465DF8047BAD
:10062000704700BF0010024080B483B000AF0346A3
:10063000FB71074AFB7903F00F03D9B2536861F3EA
:100640000713536000BF0C37BD465DF8047B70474D
:100650000010024080B483B000AF0346FB71074A2C
:10066000FB7903F00703D9B2536861F30A2353609F
:1006700000BF0C37BD465DF8047B70470010024098
:1006800080B483B000AF0346FB71074AFB7903F0E7
:100690000703D9B2536861F3CD23536000BF0C3711
:1006A000BD465DF8047B70470010024080B483B003
:1006B00000AF0346FB710B46BB7113467B71FB79A0
:1006C000002B05D11D4A53686FF31043536012E0AD
:1006D0001A4A536843F480335360FB79012B05D1E8
:1006E000164A53686FF35143536004E0134A53684A
:1006F00043F400335360114ABB7903F00F03D9B2BE
:10070000536861F395435360BB791B110B4A03F0A7
:100710000303D9B2536861F35E735360074A7B7970
:1007200003F00103D9B2536861F3DF73536000BF74
:100730000C37BD465DF8047B704700BF00100240D7
:1007400080B483B000AF0346FB71074AFB7903F026
:100750000303D9B2536861F30103536000BF0C3740
:10076000BD465DF8047B70470010024080B400AFC6
:10077000044B5B68C3F38103DBB21846BD465DF8EA
:10078000047B70470010024080B58AB000AF7860EB
:1007900000233B6200237B620023FB610023BB61DB
:1007A00000237B6100233B61FFF7E0FF0346FB73FF
:1007B000FB7B022B20D0022B69DC002B02D0012B0B
:1007C00016D064E05D4B5B6DC3F34023DBB2002BBE
:1007D0000AD05A4B1B6BC3F34063DBB2002B03D030
:1007E0007B68574A1A6056E07B68564A1A6052E0A6
:1007F0007B68544A1A604EE0504B5B68C3F3004379
:10080000DBB2BB614D4B5B68C3F38343DBB27B62FE
:100810004A4B5B68C3F34173DBB2FB61FB69002B9E
:1008200002D17B6A0F2B06D1FB691A017B6A134444
:1008300001337B6202E07B6A02337B62BB69002B7F
:1008400006D17B6A404A03FB02F27B681A6022E011
:100850003A4B5B68C3F34043DBB2002B10D0374BFD
:100860005B6DC3F30133DBB23B623B6A0233354A53
:10087000B2FBF3F37A6A03FB02F27B681A600AE0C8
:100880007B6A304A03FB02F27B681A6003E07B68F4
:100890002C4A1A6000BF294B5B68C3F30313DBB219
:1008A0007B612A4A7B6913441B783B617B681A6829
:1008B0003B69DA407B685A60204B5B68C3F30223D4
:1008C000DBB27B61224A7B6913441B783B617B6806
:1008D0005A683B69DA407B68DA60184B5B68C3F39F
:1008E000C223DBB27B611B4A7B6913441B783B61EB
:1008F0007B685A683B69DA407B689A600F4B5B689B
:10090000C3F30073DBB27B617B699B000B4A5268C7
:10091000C2F38132D2B213437B610F4A7B69134425
:100920001B783B617B689A683B69B2FBF3F27B689A
:100930001A6100BF2837BD4680BD00BF00100240CD
:10094000006CDC0200127A0000093D001C23000844
:100950002C230008342300083C23000880B483B013
:1009600000AF0346FB71FB79012B05D1084A536D9B
:1009700043F03003536504E0054A536D6FF30513EC
:10098000536500BF0C37BD465DF8047B704700BF60
:100990000010024080B483B000AF0346FB71074AE9
:1009A000FB7903F00303D9B2536D61F30D33536543
:1009B00000BF0C37BD465DF8047B70470010024055
:1009C00080B485B000AF78600B467B800023FB735A
:1009D0007A8879887B689B680B409A4202D0002312
:1009E000FB7301E00123FB73FB7B18461437BD4604
:1009F0005DF8047B704780B483B000AF78600B462D
:100A00007B807A887B681A6100BF0C37BD465DF831
:100A1000047B704780B483B000AF78600B467B8066
:100A20007A887B685A6100BF0C37BD465DF8047B4D
:100A30007047000080B485B000AF78607B6803F039
:100A40000703FB600C4BDB68BB60BA684FF6FF0323
:100A50001340BB60FB681A02BB68134343F0BF63DB
:100A600043F40033BB60044ABB68D36000BF143753
:100A7000BD465DF8047B704700ED00E080B400AF38
:100A8000044BDB681B0A03F007031846BD465DF8FC
:100A9000047B704700ED00E080B483B000AF0346F4
:100AA000FB7197F90730002B0BDBFB7903F01F027A
:100AB000074997F907305B09012000FA02F241F873
:100AC000232000BF0C37BD465DF8047B704700BF94
:100AD00000E100E080B483B000AF03463960FB71F1
:100AE00097F90730002B0ADB3B68DAB20C4997F91B
:100AF00007301201D2B20B4483F800230AE03B68AE
:100B0000DAB20849FB7903F00F03043B1201D2B2B9
:100B10000B441A7600BF0C37BD465DF8047B704766
:100B200000E100E000ED00E080B489B000AFF860C3
:100B3000B9607A60FB6803F00703FB61FB69C3F1EE
:100B40000703042B28BF0423BB61FB690433062B76
:100B500002D9FB69033B00E000237B614FF0FF32C9
:100B6000BB6902FA03F3DA43BB681A407B699A4017
:100B70004FF0FF317B6901FA03F3D9437B680B40E7
:100B8000134318462437BD465DF8047B704780B593
:100B900086B000AF0346B9607A60FB7300237B61C7
:100BA000FFF76CFF03467A68B9681846FFF7BCFF89
:100BB000786197F90F3079691846FFF78BFF97F93D
:100BC0000F301846FFF768FF00BF1837BD4680BDDD
:100BD00080B582B000AF0346FB71FB791846FFF782
:100BE00029FF00BF0837BD4680BD000080B483B038
:100BF00000AF0346FB71FB79042B06D1094B1B6840
:100C0000084A43F00403136005E0064B1B68054ADD
:100C100023F00403136000BF0C37BD465DF8047B6E
:100C2000704700BF10E000E080B483B000AF786090
:100C30000B46FB70FB7803F00103D9B27A681368A6
:100C400061F30003136000BF0C37BD465DF8047B01
:100C5000704780B485B000AF786039600023FB73C3
:100C60007B681A693B681340002B02D00123FB7399
:100C700001E00023FB73FB7B18461437BD465DF88B
:100C8000047B704780B483B000AF786039603B6804
:100C9000DA437B681A6100BF0C37BD465DF8047B00
:100CA00070470000002103E00B4B5B5843500431B8
:100CB0000A480B4B42189A42F6D30A4A02E0002334
:100CC00042F8043B084B9A42F9D300F011F800F0C7
:100CD0007BFEFFF753FB70479023000800000020C5
:100CE000080100200801002040010020FEE700006C
:100CF00080B400AF1E4BD3F888301D4A43F4700314
:100D0000C2F888301B4A136843F00103136000BF28
:100D1000184B1B68C3F34003DBB2012BF8D1154A13
:100D200053686FF30103536000BF124B5B68C3F35A
:100D30008103DBB2002BF8D10E4B00225A600D4B21
:100D40001B680C4A23F0867323F480331360094B2D
:100D500000221A63074B4FF41F029A60044B4FF0B6
:100D600000629A6000BFBD465DF8047B704700BF1B
:100D700000ED00E00010024080B588B000AF002315
:100D8000BB610023FB6100237B6100233B610023E7
:100D9000FB600023BB60FFF7E9FC0346FB71FB79B6
:100DA000022B20D0022B69DC002B02D0012B16D0A5
:100DB00064E03F4B5B6DC3F34023DBB2002B0AD0F2
:100DC0003B4B1B6BC3F34063DBB2002B03D0394BAF
:100DD000394A1A6056E0374B384A1A6052E0354BB0
:100DE000364A1A604EE0324B5B68C3F30043DBB215
:100DF0003B612F4B5B68C3F38343DBB2FB612C4B3E
:100E00005B68C3F34173DBB27B617B69002B02D16A
:100E1000FB690F2B06D17B691A01FB69134401336F
:100E2000FB6102E0FB690233FB613B69002B06D1E9
:100E3000FB69234A02FB03F31E4A136022E01C4BAA
:100E40005B68C3F34043DBB2002B10D0184B5B6DE3
:100E5000C3F30133DBB2BB61BB690233174AB2FB98
:100E6000F3F3FA6902FB03F3124A13600AE0FB6929
:100E7000124A02FB03F30F4A136003E00D4B0F4AC3
:100E80001A6000BF0A4B5B68C3F30313DBB2FB605D
:100E90000C4AFB6813441B78BB60064B1A68BB689E
:100EA00022FA03F3034A136000BF2037BD4680BD1A
:100EB0000010024000000020006CDC0200127A00EA
:100EC00000093D004423000880B584B000AF03460C
:100ED000FB71FB7923F00F03FB73FB791B01BB73E1
:100EE000FB7B43F00C03DBB23B72FB7B43F008035C
:100EF000DBB27B72BB7B43F00C03DBB2BB72BB7B10
:100F000043F00803DBB2FB7207F108030422194621
:100F10004E2000F017FD00BF1037BD4680BD80B5E4
:100F200084B000AF0346FB71FB7923F00F03FB7322
:100F3000FB791B01BB73FB7B43F00D03DBB23B7200
:100F4000FB7B43F00903DBB27B72BB7B43F00D03F9
:100F5000DBB2BB72BB7B43F00903DBB2FB7207F170
:100F60000803042219464E2000F0ECFC00BF1037A5
:100F7000BD4680BD80B582B000AF786039607B68C7
:100F8000002B03D07B68012B05D009E03B6843F0C0
:100F900080033B6004E03B6843F0C0033B6000BF5C
:100FA0003B68DBB21846FFF78FFF00BF0837BD462E
:100FB00080BD80B500AF322000F0DAF83020FFF7B6
:100FC00083FF052000F0D4F83020FFF77DFF0120DB
:100FD00000F0CEF83020FFF777FF0A2000F0C8F8C5
:100FE0002020FFF771FF0A2000F0C2F82820FFF749
:100FF0006BFF012000F0BCF80820FFF765FF01201F
:1010000000F0B6F80120FFF75FFF012000F0B0F814
:10101000012000F0ADF80620FFF756FF012000F098
:10102000A7F80C20FFF750FF00BF80BD80B582B04D
:1010300000AF786006E07B685A1C7A601B7818461F
:10104000FFF76DFF7B681B78002BF4D100BF00BF5A
:101050000837BD4680BD000080B586B000AF78601F
:10106000144A154BD31A7B617B693B61134B1B6898
:10107000002B02D1114B124A1A60104B1A687B6880
:1010800013443A699A4207D200F098FC03460C22B6
:101090001A604FF0FF3309E0084B1B68FB60074BF9
:1010A0001A687B681344054A1360FB6818461837B2
:1010B000BD4680BD00800120000400002401002006
:1010C0004001002080B500AF0420FFF78FFD094BE1
:1010D0001B68094AA2FB03239B0C084A1360074BB9
:1010E0001B684FF47A7202FB03F3054A136000BFDA
:1010F00080BD00BF0000002083DE1B4328010020CC
:101100002C01002080B485B000AF78600023FB6024
:10111000154B1B6815497A6802FB03F34B60134BB0
:1011200000229A60114B1B68104A43F001031360C0
:101130000E4B1B68FB60FB6803F00103002B04D01F
:10114000FB6803F48033002BF2D0084B1B68074A7E
:1011500023F001031360054B00229A6000BF14378F
:10116000BD465DF8047B70472801002010E000E0D8
:1011700080B485B000AF0346FB800023FB6035E000
:10118000FB88322B0AD91E4B1B681E4A322101FBF9
:1011900003F35360FB88323BFB8008E0FB88184A6E
:1011A0001268184902FB03F34B600023FB80154BC8
:1011B00000229A60134B1B68124A43F0010313602C
:1011C000104B1B68FB60FB6803F00103002B04D08D
:1011D000FB6803F48033002BF2D00A4B1B68094AEA
:1011E00023F001031360074B00229A60FB88002B59
:1011F000C6D100BF00BF1437BD465DF8047B704701
:101200002C01002010E000E080B483B000AF7860D3
:101210007B689B68D9687B681A687B689B684A40D2
:10122000DA6000BF0C37BD465DF8047B704780B4C0
:1012300083B000AF78600B46FB70FB78002B05D0C5
:101240007B689B687A6812681A6104E07B689B6817
:101250007A6812685A6100BF0C37BD465DF8047B9E
:101260007047000080B584B000AF78607B689B68F1
:10127000002B00F0C8807B689B68654A934204D1CC
:1012800001216448FFF73DF91DE07B689B68624AD5
:10129000934204D101216148FFF733F913E07B68E1
:1012A0009B685F4A934204D101215E48FFF729F908
:1012B00009E07B689B685C4A934204D101215B484A
:1012C000FFF71FF900BF7B681B683B817B689B7938
:1012D000032B02D100237B8132E07B689B79002BBA
:1012E00017D17B685B799BB203F00F037B817B682E
:1012F0005B79182B04D17B689B683A891A611FE0DF
:101300007B685B79282B1BD17B689B683A895A6183
:1013100016E07B689B791BB203F008031AB27B6866
:101320001B791BB203F004031BB213431AB27B6890
:10133000DB791BB203F003031BB213431BB27B81A7
:101340003B89DBB2002B2BD00023FB6025E03A89E0
:10135000FB6842FA03F303F00103002B1AD07B6809
:101360009B681A68FB689B000F2101FA03F3DB43BB
:1013700019467B689B680A401A607B689B681A68FC
:101380007989FB689B0001FA03F319467B689B6827
:101390000A431A60FB680133FB60FB68072BD6D950
:1013A0003B89FF2B30D93B891B0A3B810023FB6023
:1013B00025E03A89FB6842FA03F303F00103002BAE
:1013C0001AD07B689B685A68FB689B000F2101FA62
:1013D00003F3DB4319467B689B680A405A607B68CD
:1013E0009B685A687989FB689B0001FA03F31946E8
:1013F0007B689B680A435A60FB680133FB60FB68AB
:10140000072BD6D900E000BF1037BD4680BD00BF16
:101410000008014002001800000C01400300180001
:1014200000100140040018000014014005001800DD
:1014300080B582B000AF01210F48FFF762F880212C
:101440000E48FFF7D8FA40210C48FFF7D4FA0023E2
:10145000FB7109E0FB791B01094A13441846FFF7A9
:1014600001FFFB790133FB71FB79012BF2D900BF3E
:1014700000BF0837BD4680BD15001C00000C0140B0
:101480008400002080B582B000AF0023FB710CE027
:10149000FA7913465B001344DB00124A13441846E2
:1014A00000F026F8FB790133FB71FB79012BEFD9B2
:1014B0000320FFF78DFB002200211920FFF767FBB7
:1014C000002200212C20FFF762FB01210648FFF7D4
:1014D000ABFB01210548FFF7A7FB00BF0837BD465E
:1014E00080BD00BF34000020002C014000340140CA
:1014F00080B582B000AF78607B681B68002B4CD051
:101500007B681B68274A934204D101212648FEF7D5
:10151000F8FF09E07B681B68244A934204D101214B
:101520002348FEF7EEFF00BF7B681B687A685268AD
:10153000DA627B681B687A6892689A627B681A68CC
:10154000536943F0010353617B68197B7B681A6818
:101550000B4603F00703D9B2136861F30613136057
:101560007B681B7D012B09D17B681B68D9687B6870
:101570001A697B681B680A43DA600FE07B681B7D91
:10158000002B0BD17B681B68D9687B681B69DA4329
:101590007B681B680A40DA6000E000BF0837BD4680
:1015A00080BD00BF002C01400B001800003401403A
:1015B0000D00180080B582B000AF0023FB710CE075
:1015C000FB791B01094A13441846FFF74BFE0848F4
:1015D00000F010F8FB790133FB71FB79012BEFD997
:1015E00000BF00BF0837BD4680BD00BF74000020AB
:1015F0006400002080B58AB000AF78607B681B680B
:10160000002B00F09D807B681B684F4A934203D1FA
:1016100001214E48FEF775FF07F10C031846FFF74E
:10162000B3F87B681B68484A93420ED07B681B68FE
:10163000474A934209D07B681B68464A934204D0CC
:101640007B681B68444A934202D17B697B6201E05C
:10165000BB697B627A6A13469B0013445B001A469F
:101660007B685B68B2FBF3F33B62396A3B4BA3FBDD
:101670000123DA0813469B0013445B00CA1A042AAC
:1016800006D83B6A354AA2FB0323DB083B6206E02F
:101690003B6A324AA2FB0323DB0801333B627B68CF
:1016A0001A683B6A99B2936861F30F0393607B6891
:1016B000197A7B681A680B4603F00103D9B2D36824
:1016C00061F30C33D3607B68597A7B681A680B46E8
:1016D00003F00303D9B2136961F30D3313617B681F
:1016E000997A7B681A680B4603F00103D9B2D36874
:1016F00061F3C303D3607B68D97A7B681A680B46B1
:1017000003F00103D9B2D36861F38203D3607B682D
:10171000197B7B681A680B4603F00103D9B2536941
:1017200061F3C30353617B68597B7B681A680B467E
:1017300003F00103D9B2D36861F34D33D36000E005
:1017400000BF2837BD4680BD003801400E0018009C
:10175000006001400064014000680140CDCCCCCC69
:1017600080B582B000AFFFF7ADFC0023FB7117E03E
:10177000FB791B010E4A13441846FFF773FDFB79F2
:101780001B010B4A1A44FB7909491B010B440F3317
:101790001B7819461046FFF74AFDFB790133FB71B0
:1017A000FB79022BE4D900BF00BF0837BD4680BDDE
:1017B0000400002080B582B000AF0346FB71FB79C6
:1017C0001B01044A13441846FFF71EFD00BF0837EB
:1017D000BD4680BD0400002080B500AF0520FFF7A6
:1017E00091FC00BF80BD000080B500AFFFF7F4FFA3
:1017F00080210A48FFF7FFF840210848FFF7FBF86F
:10180000FFF7EAFF80210548FFF704F9FFF7E4FF3F
:1018100040210248FFF7FEF800BF80BD000C0140E8
:1018200080B500AF40210B48FFF7F4F8802109484C
:10183000FFF7F0F8FFF7D0FF40210648FFF7DBF88D
:10184000FFF7CAFF80210348FFF7D5F8FFF7C4FF71
:1018500000BF80BD000C014080B582B000AF0346E0
:10186000FB7140211A48FFF7D5F880211848FFF78F
:10187000C2F8FFF7B1FF17E080211548FFF7A0F885
:101880000346012B0BD040211148FFF7B4F8FFF7B6
:10189000A3FF40210E48FFF7BDF8002314E0FFF737
:1018A0009BFFFB79013BFB71FB79002BE4D14021CD
:1018B0000748FFF7A0F8FFF78FFF40210448FFF724
:1018C000A9F8FFF789FF012318460837BD4680BDF8
:1018D000000C014080B584B000AF0346FB710823C3
:1018E000FB731BE040211648FFF794F897F9073087
:1018F000002B04DA80211248FFF77DF803E08021F5
:101900000F48FFF787F8FFF767FFFB795B00FB7174
:1019100040210B48FFF76FF8FFF75EFFFB7B5A1E75
:10192000FA73002BDED140210548FFF773F88021C0
:101930000348FFF760F800BF1037BD4680BD00BF09
:10194000000C014080B584B000AF03463960FB80D5
:101950001346BB80FFF748FFFB88DBB21846FFF752
:10196000B9FF0A20FFF778FF0346012B03D1FFF7E9
:1019700057FF01231DE00023FB8113E0FB893A6838
:1019800013441B781846FFF7A5FF0A20FFF764FFF2
:101990000346012B03D1FFF743FF012309E0FB8935
:1019A0000133FB81FA89BB889A42E7D3FFF738FFFE
:1019B000002318461037BD4680BD0000014B186853
:1019C000704700BFA400002070B50D4D0D4C641B86
:1019D000A4100026A64209D10B4D0C4C00F086FC49
:1019E000641BA4100026A64205D170BD55F8043B27
:1019F00098470136EEE755F8043B98470136F2E781
:101A00008823000888230008882300088C23000806
:101A10000EB400B59CB01DAB029006906FF0004173
:101A2000094807910491094953F8042B059100686E
:101A3000019302A900F068F8029B00221A701CB002
:101A40005DF804EB03B07047A40000200802FFFF1C
:101A50002DE9F0478E689E4282460C4690461F460E
:101A600038D88A8912F4906F32D025680969A5EBBD
:101A70000109656905EB450505EBD57501334B4457
:101A80006D109D4238BF1D46530531D5294600F0E3
:101A900063FB064650B90C23CAF80030A38943F013
:101AA0004003A3814FF0FF30BDE8F08721694A462B
:101AB00000F0BEFAA38923F4906343F08003A3816E
:101AC000266165614E44A5EB09052660A5603E468A
:101AD000BE4200D93E4620683246414600F0B6FA82
:101AE000A3689B1BA3602368334423600020DBE7CB
:101AF0002A4600F0A5FB06460028E1D121695046A0
:101B000000F0BEFAC7E700002DE9F04F98468B8938
:101B10001B069DB007460D4614460ED50B6963B9EA
:101B2000402100F019FB2860286120B90C233B609C
:101B30004FF0FF30D1E040236B6100230993202355
:101B40008DF82930CDF80C803023DFF8A8818DF88E
:101B50002A304FF0010923469A4613F8012B0AB1A7
:101B6000252AF9D1BAEB040B0BD05B462246294655
:101B70003846FFF76DFF013000F0AA80099A5A44F9
:101B800009929AF80030002B00F0A28000234FF059
:101B9000FF32CDE905230AF1010A049307938DF87A
:101BA00053301A935446052214F8011B5148FEF78E
:101BB0000FFB049AD8B9D00644BF20238DF85330C8
:101BC000110744BF2B238DF853309AF800302A2B8D
:101BD00015D0079A544600204FF00A0C214611F800
:101BE000013B303B092B4ED9B0B1079214E0A0EB7A
:101BF000080309FA03F313430493A246D2E7039BB5
:101C0000191D1B680391002BBBBF5B4242F002020F
:101C100007930793B8BF049223782E2B0CD16378D7
:101C20002A2B35D1039B1A1D1B680392002BB8BFCA
:101C30004FF0FF3302340593DFF8C8A02178032268
:101C40005046FEF7C5FA40B14023A0EB0A0003FA64
:101C500000F0049B03430134049314F8011B26484D
:101C60008DF828100622FEF7B3FA002838D0234B4F
:101C70001BBB039B073323F0070308330393099B24
:101C80003344099367E70CFB02320C460120A5E7B9
:101C900000230134059319464FF00A0C204610F832
:101CA000012B303A092A03D9002BC5D00591C3E78F
:101CB0000CFB012104460123F0E703AB00932A4605
:101CC0000F4B04A93846AFF30080421C0646D6D11C
:101CD000AB895B063FF52CAF09981DB0BDE8F08FCE
:101CE00003AB00932A46064B04A9384600F07AF865
:101CF000EBE700BF542300085E230008000000004B
:101D0000511A00085A2300082DE9F0471646994653
:101D10008A680B69DDF820809342B8BF13463360B0
:101D200091F8432007460C460AB10133336023681B
:101D3000990642BF336802333360256815F0060503
:101D400006D104F1190AE36832689B1AAB4226DC1B
:101D500094F84320131E226818BF012392062BD447
:101D600004F1430249463846C04701301ED023687B
:101D7000E568326803F00603042B08BFAD1AA368B8
:101D800022690CBF25EAE57500259342C4BF9B1A62
:101D9000ED1800261A34B5421AD1002008E00123BC
:101DA000524649463846C047013003D14FF0FF3014
:101DB000BDE8F0870135C6E7E1185A1C302081F8EC
:101DC0004300224494F8451082F843100233C7E7D9
:101DD0000123224649463846C0470130E6D0013645
:101DE000D9E700002DE9FF470F7E0C9D782F914623
:101DF00080460C469A4601F1430207D8622F0AD862
:101E0000002F00F0D880582F00F0A38004F1420585
:101E100084F842703AE0A7F16303152BF6D801A1CC
:101E200051F823F07D1E0008911E00080D1E0008C9
:101E30000D1E00080D1E00080D1E0008911E000852
:101E40000D1E00080D1E00080D1E00080D1E0008C6
:101E50009D1F0008C11E00087F1F00080D1E0008FE
:101E60000D1E0008BF1F00080D1E0008C11E00083F
:101E70000D1E00080D1E0008871F00082B681A1D84
:101E80001B682A6004F1420584F842300123A3E074
:101E900020682968060601F104030AD50E682B6044
:101EA000002E03DA2D23764284F843305E480A235D
:101EB00019E00E682B6010F0400F18BF36B2EFE744
:101EC0002B682068191D2960010601D51E6802E0F3
:101ED0004606FBD51E8854486F2F0CBF08230A23E3
:101EE000002184F843106568A560002DA2BF216819
:101EF00021F0040121600EB9002D4DD01546B6FB2E
:101F0000F3F103FB1167C75D05F8017D3746BB425E
:101F10000E46F4D9082B0BD12368DE0708D52369B8
:101F200061689942DEBF302305F8013C05F1FF35B9
:101F3000521B2261CDF800A04B4603AA2146404621
:101F4000FFF7E2FE01304CD14FF0FF3004B0BDE8A6
:101F5000F087354881F845702968236851F8046B8B
:101F600029601D0614D5DF0744BF43F0200323601A
:101F70001EB9236823F0200323601023B0E72368F1
:101F800043F0200323607823284884F84530E3E7B2
:101F9000590648BFB6B2E6E71546BBE72B68266888
:101FA0006169181D286035061B6801D5196002E0BB
:101FB0007006FBD51980002323611546BAE72B680C
:101FC0001A1D2A601D68626800212846FEF700F984
:101FD00008B1401B606063682361002384F84330CC
:101FE000A8E723692A4649464046D0470130ABD08E
:101FF00023689B0713D4E068039B9842B8BF184638
:10200000A4E70123324649464046D04701309BD0E1
:102010000135E36803995B1AAB42F2DCEBE700257C
:1020200004F11906F5E700BF6523000876230008D0
:102030000A44914200F1FF3300D1704710B511F806
:10204000014B03F8014F9142F9D110BD884210B500
:1020500001EB020402D98442234607D8431EA14261
:1020600008D011F8012B03F8012FF8E702440146CC
:102070008A4200D110BD13F8014D02F8014DF7E777
:1020800037B5002944D051F8043C0190002BA1F150
:102090000404B8BFE41800F013F91E4A019813684D
:1020A00033B96360146003B0BDE8304000F00EB98E
:1020B000A34208D9256861198B4201BF19685B6882
:1020C00049192160EDE71A465B680BB1A342FAD9C2
:1020D00011685518A5420BD1246821445418A34215
:1020E0001160E0D11C685B68536021441160DAE73D
:1020F00002D90C230360D6E7256861198B4204BF1F
:1021000019685B68636004BF491921605460CAE7BD
:1021100003B030BD3001002070B50E4E0C46316862
:10212000054611B900F0BCF830602146284600F0A1
:10213000B7F8431C0AD0C41C24F00304A04207D003
:10214000211A284600F0ACF8013001D14FF0FF34DD
:10215000204670BD340100202DE9F041CD1C25F052
:10216000030508350C2D38BF0C25002D074601DB73
:10217000A94205D90C233B6000263046BDE8F0811A
:102180002E4E00F09DF833681C4634BB2946384675
:10219000FFF7C2FF431C04464DD134682646002E8B
:1021A00040D123683146384604EB030800F078F844
:1021B00080453AD1216803356D1A25F003050835AD
:1021C0000C2D38BF0C2529463846FFF7A5FF0130F6
:1021D0002BD023682B4423600EE02268521B1ED4B0
:1021E0000B2A16D96119A342256018BF596063688C
:1021F00008BF316062514B60384604F10B0600F0B5
:1022000065F826F00706231DF21AB6D09B1BA350D3
:10221000B3E76268A3420CBF32605A60ECE7234622
:102220006468B2E734467668B9E70C233B60384609
:1022300000F04CF8A1E72560DEE700BF3001002088
:102240002DE9F041804614460E4621B9BDE8F04123
:102250001146FFF781BF2AB9FFF712FF254628462E
:10226000BDE8F08100F038F88442074602D8B4EBAC
:10227000500F12D821464046FFF76EFF0546002852
:10228000EDD0BC422246314628BF3A46FFF7D0FE89
:1022900031464046FFF7F4FEE1E73546DFE7000050
:1022A00038B5064D0023044608462B60FEF7D4FEE1
:1022B000431C02D12B6803B1236038BD38010020D4
:1022C000014800F011B800BF3C010020014800F0B7
:1022D0000CB800BF3C01002051F8043C181F002B33
:1022E000BCBF0B58C018704770477047F8B500BFA7
:1022F000F8BC08BC9E467047F8B500BFF8BC08BCE7
:042300009E4670473E
:1023040054686973206973204C5344313630320069
:1023140074656D703A2000000000000000000000A9
:102324000102030406070809000000000102030477
:10233400000000000102030402040608020C081055
:102344000000000000000000010203040607080961
:10235400232D302B2000686C4C006566674546478A
:10236400003031323334353637383941424344450D
:10237400460030313233343536373839616263647C
:04238400656600008A
:04238800B501000893
:04238C0091010008B3
:1023900000127A0000200000000410010014014027
:1023A0000001000100400000000410010014014081
:1023B0000001000100800000000410010014014031
:1023C00000010001002C0140E8030000FFFF0000B5
:1023D00000000000010000000100000000000000FB
:1023E00000000000000000000000000000000000ED
:1023F000000000000038014000C20100000001019F
:10240000010100000002000004040801000801406E
:10241000000000004000000004181002000C014001
:10242000000000008000000004181002000C0140B1
:1024300000000000A80000200000000000000000D4
:10244000000000000000000000000000000000008C
:10245000000000000000000000000000000000007C
:10246000000000000000000000000000000000006C
:10247000000000000000000000000000000000005C
:10248000000000000000000000000000000000004C
:08249000000000000000000044
:0400000508000CA53E
:00000001FF
